{
	"data": {
		"bytecode": {
			"linkReferences": {},
			"object": "608060405234801561001057600080fd5b506040516113bc3803806113bc83398101604081905261002f91610054565b600180546001600160a01b0319166001600160a01b0392909216919091179055610082565b600060208284031215610065578081fd5b81516001600160a01b038116811461007b578182fd5b9392505050565b61132b806100916000396000f3fe608060405234801561001057600080fd5b50600436106100935760003560e01c8063531aa03e11610066578063531aa03e146100e45780635fdd14fc146100f7578063a2e74af61461010c578063efde4e6414610121578063f46901ed1461012957610093565b8063017e7e5814610098578063094b7415146100b65780630fac0876146100be57806341d1de97146100d1575b600080fd5b6100a061013c565b6040516100ad91906106fe565b60405180910390f35b6100a061014b565b6100a06100cc3660046105c7565b61015a565b6100a06100df366004610686565b6103e1565b6100a06100f2366004610575565b61040b565b6100ff610431565b6040516100ad9190610796565b61011f61011a366004610554565b61047b565b005b6100ff6104c7565b61011f610137366004610554565b6104cd565b6000546001600160a01b031681565b6001546001600160a01b031681565b6000846001600160a01b0316866001600160a01b031614156101975760405162461bcd60e51b815260040161018e90610806565b60405180910390fd5b6001600160a01b0386166101bd5760405162461bcd60e51b815260040161018e9061079f565b6001600160a01b0385166101e35760405162461bcd60e51b815260040161018e9061079f565b6001600160a01b038681166000908152600260209081526040808320898516845290915290205416156102285760405162461bcd60e51b815260040161018e906107d6565b60006040518060200161023a90610519565b6020820181038252601f19601f8201166040525090506000878760405160200161026592919061069e565b604051602081830303815290604052805190602001209050808251602084016000f592506000836001600160a01b0316637e5dbf49338d8d8d8d8d8d8d6040518963ffffffff1660e01b81526004016102c5989796959493929190610712565b602060405180830381600087803b1580156102df57600080fd5b505af11580156102f3573d6000803e3d6000fd5b505050506040513d601f19601f8201168201806040525081019061031791906105a7565b905080156103d3576001600160a01b03808a1660008181526002602090815260408083208d861680855292528083208054958a166001600160a01b0319968716811790915560038054600181018255948190527fc2575a0e9e593c00f959f8c92f12db2869c3395a3b0502d05e2516446f71f85b9094018054909616179094559054925190927febbbe9dc3a19d2f959ac76ac0372b4983cdfb945f5d6aef4873c36fabb2ba8aa916103ca91899161077d565b60405180910390a35b505050979650505050505050565b600381815481106103f157600080fd5b6000918252602090912001546001600160a01b0316905081565b60026020908152600092835260408084209091529082529020546001600160a01b031681565b60405161044060208201610519565b601f1982820381018352601f90910116604081905261046291906020016106c5565b6040516020818303038152906040528051906020012081565b6001546001600160a01b031633146104a55760405162461bcd60e51b815260040161018e9061083d565b600180546001600160a01b0319166001600160a01b0392909216919091179055565b60035490565b6001546001600160a01b031633146104f75760405162461bcd60e51b815260040161018e9061083d565b600080546001600160a01b0319166001600160a01b0392909216919091179055565b610a8a8061086c83390190565b80356001600160a01b038116811461053d57600080fd5b919050565b8035600781900b811461053d57600080fd5b600060208284031215610565578081fd5b61056e82610526565b9392505050565b60008060408385031215610587578081fd5b61059083610526565b915061059e60208401610526565b90509250929050565b6000602082840312156105b8578081fd5b8151801515811461056e578182fd5b600080600080600080600060c0888a0312156105e1578283fd5b873567ffffffffffffffff808211156105f8578485fd5b818a0191508a601f83011261060b578485fd5b813581811115610619578586fd5b8b602082850101111561062a578586fd5b602092830199509750610640918a019050610526565b945061064e60408901610526565b935061065c60608901610542565b925061066a60808901610542565b915061067860a08901610542565b905092959891949750929550565b600060208284031215610697578081fd5b5035919050565b6bffffffffffffffffffffffff19606093841b811682529190921b16601482015260280190565b60008251815b818110156106e557602081860181015185830152016106cb565b818111156106f35782828501525b509190910192915050565b6001600160a01b0391909116815260200190565b6001600160a01b03898116825260e0602083018190528201889052600090610100898b82860137838a018101929092529687166040830152949095166060860152600792830b608086015290820b60a0850152900b60c0830152601f909201601f1916010192915050565b6001600160a01b03929092168252602082015260400190565b90815260200190565b60208082526017908201527f4c61756e63687061643a205a45524f5f41444452455353000000000000000000604082015260600190565b6020808252601690820152754c61756e63687061643a20504f4f4c5f45584953545360501b604082015260600190565b6020808252601e908201527f4c61756e63687061643a204944454e544943414c5f4144445245535345530000604082015260600190565b6020808252601490820152732630bab731b43830b21d102327a92124a22222a760611b60408201526060019056fe608060405234801561001057600080fd5b50600080546001600160a01b03191633179055610a58806100326000396000f3fe608060405234801561001057600080fd5b50600436106100625760003560e01c806308bf598d146100675780634728432e146100905780637e5dbf49146100a3578063d0fc4a2b146100b6578063d78a42ac14610090578063e5dd1a36146100c9575b600080fd5b61007a61007536600461073b565b6100dc565b60405161008791906107bb565b60405180910390f35b61007a61009e36600461073b565b610202565b61007a6100b1366004610642565b610250565b61007a6100c436600461073b565b610323565b61007a6100d736600461073b565b61035a565b33600090815260066020526040812054600790810b900b6101185760405162461bcd60e51b815260040161010f90610835565b60405180910390fd5b3360009081526007602081815260408084205460069092529092205461014192820b910b610980565b60070b8260070b13156101665760405162461bcd60e51b815260040161010f906107c6565b33600090815260076020819052604082208054859391926101899185910b6108e5565b92506101000a81548167ffffffffffffffff021916908360070b67ffffffffffffffff16021790555060006101d5600460009054906101000a90046001600160a01b031633308661049d565b9050601681146101f75760405162461bcd60e51b815260040161010f906108bc565b60019150505b919050565b6001546000906001600160a01b0316331461022f5760405162461bcd60e51b815260040161010f90610812565b600354610247906001600160a01b031630338561049d565b50600192915050565b600180546001600160a01b0319166001600160a01b038a16179055600061027960028989610580565b5050600380546001600160a01b03199081166001600160a01b039788161790915560048054909116949095169390931767ffffffffffffffff60a01b1916600160a01b67ffffffffffffffff600794850b811691909102919091179094556005805467ffffffffffffffff191691830b8516919091176fffffffffffffffff00000000000000001916680100000000000000009390920b9093169190910217905550600192915050565b3360009081526006602052604090208054600783900b67ffffffffffffffff1667ffffffffffffffff199091161790556001919050565b33600090815260066020526040812054600790810b900b61038d5760405162461bcd60e51b815260040161010f90610835565b60045433600090815260076020819052604082205491926103b992600160a01b909104820b910b610935565b33600090815260086020526040812054919250906103da9060070b83610980565b90508060070b8460070b13156104025760405162461bcd60e51b815260040161010f9061086c565b336000908152600860205260408120805486929061042490849060070b6108e5565b92506101000a81548167ffffffffffffffff021916908360070b67ffffffffffffffff1602179055506000610470600360009054906101000a90046001600160a01b031633308861049d565b9050601681146104925760405162461bcd60e51b815260040161010f906108bc565b506001949350505050565b60008060006101676001600160a01b031663eca3691760e01b888888886040516024016104cd949392919061078e565b60408051601f198184030181529181526020820180516001600160e01b03166001600160e01b031990941693909317909252905161050b9190610755565b6000604051808303816000865af19150503d8060008114610548576040519150601f19603f3d011682016040523d82523d6000602084013e61054d565b606091505b50915091508161055e576015610572565b808060200190518101906105729190610713565b60030b979650505050505050565b82805461058c906109d1565b90600052602060002090601f0160209004810192826105ae57600085556105f4565b82601f106105c75782800160ff198235161785556105f4565b828001600101855582156105f4579182015b828111156105f45782358255916020019190600101906105d9565b50610600929150610604565b5090565b5b808211156106005760008155600101610605565b80356001600160a01b03811681146101fd57600080fd5b8035600781900b81146101fd57600080fd5b60008060008060008060008060e0898b03121561065d578384fd5b61066689610619565b9750602089013567ffffffffffffffff80821115610682578586fd5b818b0191508b601f830112610695578586fd5b8135818111156106a3578687fd5b8c60208285010111156106b4578687fd5b6020830199508098505050506106cc60408a01610619565b94506106da60608a01610619565b93506106e860808a01610630565b92506106f660a08a01610630565b915061070460c08a01610630565b90509295985092959890939650565b600060208284031215610724578081fd5b81518060030b8114610734578182fd5b9392505050565b60006020828403121561074c578081fd5b61073482610630565b60008251815b81811015610775576020818601810151858301520161075b565b818111156107835782828501525b509190910192915050565b6001600160a01b03948516815292841660208401529216604082015260079190910b606082015260800190565b901515815260200190565b6020808252602c908201527f62757920616d6f756e7420697320746f6f206869676820666f722073656e646560408201526b391030b63637b1b0ba34b7b760a11b606082015260800190565b6020808252600990820152683337b93134b23232b760b91b604082015260600190565b60208082526018908201527f6e6f20616c6c6f636174696f6e20666f722073656e6465720000000000000000604082015260600190565b60208082526030908201527f636c61696d656420616d6f756e7420697320746f6f206869676820666f72207360408201526f32b73232b91030b63637b1b0ba34b7b760811b606082015260800190565b6020808252600f908201526e151c985b9cd9995c8811985a5b1959608a1b604082015260600190565b60008160070b8360070b82821282677fffffffffffffff0382138115161561090f5761090f610a0c565b82677fffffffffffffff1903821281161561092c5761092c610a0c565b50019392505050565b60008160070b8360070b8061095857634e487b7160e01b83526012600452602483fd5b677fffffffffffffff1982146000198214161561097757610977610a0c565b90059392505050565b60008160070b8360070b82811281677fffffffffffffff19018312811516156109ab576109ab610a0c565b81677fffffffffffffff0183138116156109c7576109c7610a0c565b5090039392505050565b6002810460018216806109e557607f821691505b60208210811415610a0657634e487b7160e01b600052602260045260246000fd5b50919050565b634e487b7160e01b600052601160045260246000fdfea26469706673582212201f5d9be2deb2cc6c5228491748c9da8625b0bf5649276a7afb51e7a8eefc664964736f6c63430008000033a2646970667358221220dd99fc144dcbf6e1a4c3b4e46b2fcea72b59ee7aba9b9abdda62aaea02ce702064736f6c63430008000033",
			"opcodes": "PUSH1 0x80 PUSH1 0x40 MSTORE CALLVALUE DUP1 ISZERO PUSH2 0x10 JUMPI PUSH1 0x0 DUP1 REVERT JUMPDEST POP PUSH1 0x40 MLOAD PUSH2 0x13BC CODESIZE SUB DUP1 PUSH2 0x13BC DUP4 CODECOPY DUP2 ADD PUSH1 0x40 DUP2 SWAP1 MSTORE PUSH2 0x2F SWAP2 PUSH2 0x54 JUMP JUMPDEST PUSH1 0x1 DUP1 SLOAD PUSH1 0x1 PUSH1 0x1 PUSH1 0xA0 SHL SUB NOT AND PUSH1 0x1 PUSH1 0x1 PUSH1 0xA0 SHL SUB SWAP3 SWAP1 SWAP3 AND SWAP2 SWAP1 SWAP2 OR SWAP1 SSTORE PUSH2 0x82 JUMP JUMPDEST PUSH1 0x0 PUSH1 0x20 DUP3 DUP5 SUB SLT ISZERO PUSH2 0x65 JUMPI DUP1 DUP2 REVERT JUMPDEST DUP2 MLOAD PUSH1 0x1 PUSH1 0x1 PUSH1 0xA0 SHL SUB DUP2 AND DUP2 EQ PUSH2 0x7B JUMPI DUP2 DUP3 REVERT JUMPDEST SWAP4 SWAP3 POP POP POP JUMP JUMPDEST PUSH2 0x132B DUP1 PUSH2 0x91 PUSH1 0x0 CODECOPY PUSH1 0x0 RETURN INVALID PUSH1 0x80 PUSH1 0x40 MSTORE CALLVALUE DUP1 ISZERO PUSH2 0x10 JUMPI PUSH1 0x0 DUP1 REVERT JUMPDEST POP PUSH1 0x4 CALLDATASIZE LT PUSH2 0x93 JUMPI PUSH1 0x0 CALLDATALOAD PUSH1 0xE0 SHR DUP1 PUSH4 0x531AA03E GT PUSH2 0x66 JUMPI DUP1 PUSH4 0x531AA03E EQ PUSH2 0xE4 JUMPI DUP1 PUSH4 0x5FDD14FC EQ PUSH2 0xF7 JUMPI DUP1 PUSH4 0xA2E74AF6 EQ PUSH2 0x10C JUMPI DUP1 PUSH4 0xEFDE4E64 EQ PUSH2 0x121 JUMPI DUP1 PUSH4 0xF46901ED EQ PUSH2 0x129 JUMPI PUSH2 0x93 JUMP JUMPDEST DUP1 PUSH4 0x17E7E58 EQ PUSH2 0x98 JUMPI DUP1 PUSH4 0x94B7415 EQ PUSH2 0xB6 JUMPI DUP1 PUSH4 0xFAC0876 EQ PUSH2 0xBE JUMPI DUP1 PUSH4 0x41D1DE97 EQ PUSH2 0xD1 JUMPI JUMPDEST PUSH1 0x0 DUP1 REVERT JUMPDEST PUSH2 0xA0 PUSH2 0x13C JUMP JUMPDEST PUSH1 0x40 MLOAD PUSH2 0xAD SWAP2 SWAP1 PUSH2 0x6FE JUMP JUMPDEST PUSH1 0x40 MLOAD DUP1 SWAP2 SUB SWAP1 RETURN JUMPDEST PUSH2 0xA0 PUSH2 0x14B JUMP JUMPDEST PUSH2 0xA0 PUSH2 0xCC CALLDATASIZE PUSH1 0x4 PUSH2 0x5C7 JUMP JUMPDEST PUSH2 0x15A JUMP JUMPDEST PUSH2 0xA0 PUSH2 0xDF CALLDATASIZE PUSH1 0x4 PUSH2 0x686 JUMP JUMPDEST PUSH2 0x3E1 JUMP JUMPDEST PUSH2 0xA0 PUSH2 0xF2 CALLDATASIZE PUSH1 0x4 PUSH2 0x575 JUMP JUMPDEST PUSH2 0x40B JUMP JUMPDEST PUSH2 0xFF PUSH2 0x431 JUMP JUMPDEST PUSH1 0x40 MLOAD PUSH2 0xAD SWAP2 SWAP1 PUSH2 0x796 JUMP JUMPDEST PUSH2 0x11F PUSH2 0x11A CALLDATASIZE PUSH1 0x4 PUSH2 0x554 JUMP JUMPDEST PUSH2 0x47B JUMP JUMPDEST STOP JUMPDEST PUSH2 0xFF PUSH2 0x4C7 JUMP JUMPDEST PUSH2 0x11F PUSH2 0x137 CALLDATASIZE PUSH1 0x4 PUSH2 0x554 JUMP JUMPDEST PUSH2 0x4CD JUMP JUMPDEST PUSH1 0x0 SLOAD PUSH1 0x1 PUSH1 0x1 PUSH1 0xA0 SHL SUB AND DUP2 JUMP JUMPDEST PUSH1 0x1 SLOAD PUSH1 0x1 PUSH1 0x1 PUSH1 0xA0 SHL SUB AND DUP2 JUMP JUMPDEST PUSH1 0x0 DUP5 PUSH1 0x1 PUSH1 0x1 PUSH1 0xA0 SHL SUB AND DUP7 PUSH1 0x1 PUSH1 0x1 PUSH1 0xA0 SHL SUB AND EQ ISZERO PUSH2 0x197 JUMPI PUSH1 0x40 MLOAD PUSH3 0x461BCD PUSH1 0xE5 SHL DUP2 MSTORE PUSH1 0x4 ADD PUSH2 0x18E SWAP1 PUSH2 0x806 JUMP JUMPDEST PUSH1 0x40 MLOAD DUP1 SWAP2 SUB SWAP1 REVERT JUMPDEST PUSH1 0x1 PUSH1 0x1 PUSH1 0xA0 SHL SUB DUP7 AND PUSH2 0x1BD JUMPI PUSH1 0x40 MLOAD PUSH3 0x461BCD PUSH1 0xE5 SHL DUP2 MSTORE PUSH1 0x4 ADD PUSH2 0x18E SWAP1 PUSH2 0x79F JUMP JUMPDEST PUSH1 0x1 PUSH1 0x1 PUSH1 0xA0 SHL SUB DUP6 AND PUSH2 0x1E3 JUMPI PUSH1 0x40 MLOAD PUSH3 0x461BCD PUSH1 0xE5 SHL DUP2 MSTORE PUSH1 0x4 ADD PUSH2 0x18E SWAP1 PUSH2 0x79F JUMP JUMPDEST PUSH1 0x1 PUSH1 0x1 PUSH1 0xA0 SHL SUB DUP7 DUP2 AND PUSH1 0x0 SWAP1 DUP2 MSTORE PUSH1 0x2 PUSH1 0x20 SWAP1 DUP2 MSTORE PUSH1 0x40 DUP1 DUP4 KECCAK256 DUP10 DUP6 AND DUP5 MSTORE SWAP1 SWAP2 MSTORE SWAP1 KECCAK256 SLOAD AND ISZERO PUSH2 0x228 JUMPI PUSH1 0x40 MLOAD PUSH3 0x461BCD PUSH1 0xE5 SHL DUP2 MSTORE PUSH1 0x4 ADD PUSH2 0x18E SWAP1 PUSH2 0x7D6 JUMP JUMPDEST PUSH1 0x0 PUSH1 0x40 MLOAD DUP1 PUSH1 0x20 ADD PUSH2 0x23A SWAP1 PUSH2 0x519 JUMP JUMPDEST PUSH1 0x20 DUP3 ADD DUP2 SUB DUP3 MSTORE PUSH1 0x1F NOT PUSH1 0x1F DUP3 ADD AND PUSH1 0x40 MSTORE POP SWAP1 POP PUSH1 0x0 DUP8 DUP8 PUSH1 0x40 MLOAD PUSH1 0x20 ADD PUSH2 0x265 SWAP3 SWAP2 SWAP1 PUSH2 0x69E JUMP JUMPDEST PUSH1 0x40 MLOAD PUSH1 0x20 DUP2 DUP4 SUB SUB DUP2 MSTORE SWAP1 PUSH1 0x40 MSTORE DUP1 MLOAD SWAP1 PUSH1 0x20 ADD KECCAK256 SWAP1 POP DUP1 DUP3 MLOAD PUSH1 0x20 DUP5 ADD PUSH1 0x0 CREATE2 SWAP3 POP PUSH1 0x0 DUP4 PUSH1 0x1 PUSH1 0x1 PUSH1 0xA0 SHL SUB AND PUSH4 0x7E5DBF49 CALLER DUP14 DUP14 DUP14 DUP14 DUP14 DUP14 DUP14 PUSH1 0x40 MLOAD DUP10 PUSH4 0xFFFFFFFF AND PUSH1 0xE0 SHL DUP2 MSTORE PUSH1 0x4 ADD PUSH2 0x2C5 SWAP9 SWAP8 SWAP7 SWAP6 SWAP5 SWAP4 SWAP3 SWAP2 SWAP1 PUSH2 0x712 JUMP JUMPDEST PUSH1 0x20 PUSH1 0x40 MLOAD DUP1 DUP4 SUB DUP2 PUSH1 0x0 DUP8 DUP1 EXTCODESIZE ISZERO DUP1 ISZERO PUSH2 0x2DF JUMPI PUSH1 0x0 DUP1 REVERT JUMPDEST POP GAS CALL ISZERO DUP1 ISZERO PUSH2 0x2F3 JUMPI RETURNDATASIZE PUSH1 0x0 DUP1 RETURNDATACOPY RETURNDATASIZE PUSH1 0x0 REVERT JUMPDEST POP POP POP POP PUSH1 0x40 MLOAD RETURNDATASIZE PUSH1 0x1F NOT PUSH1 0x1F DUP3 ADD AND DUP3 ADD DUP1 PUSH1 0x40 MSTORE POP DUP2 ADD SWAP1 PUSH2 0x317 SWAP2 SWAP1 PUSH2 0x5A7 JUMP JUMPDEST SWAP1 POP DUP1 ISZERO PUSH2 0x3D3 JUMPI PUSH1 0x1 PUSH1 0x1 PUSH1 0xA0 SHL SUB DUP1 DUP11 AND PUSH1 0x0 DUP2 DUP2 MSTORE PUSH1 0x2 PUSH1 0x20 SWAP1 DUP2 MSTORE PUSH1 0x40 DUP1 DUP4 KECCAK256 DUP14 DUP7 AND DUP1 DUP6 MSTORE SWAP3 MSTORE DUP1 DUP4 KECCAK256 DUP1 SLOAD SWAP6 DUP11 AND PUSH1 0x1 PUSH1 0x1 PUSH1 0xA0 SHL SUB NOT SWAP7 DUP8 AND DUP2 OR SWAP1 SWAP2 SSTORE PUSH1 0x3 DUP1 SLOAD PUSH1 0x1 DUP2 ADD DUP3 SSTORE SWAP5 DUP2 SWAP1 MSTORE PUSH32 0xC2575A0E9E593C00F959F8C92F12DB2869C3395A3B0502D05E2516446F71F85B SWAP1 SWAP5 ADD DUP1 SLOAD SWAP1 SWAP7 AND OR SWAP1 SWAP5 SSTORE SWAP1 SLOAD SWAP3 MLOAD SWAP1 SWAP3 PUSH32 0xEBBBE9DC3A19D2F959AC76AC0372B4983CDFB945F5D6AEF4873C36FABB2BA8AA SWAP2 PUSH2 0x3CA SWAP2 DUP10 SWAP2 PUSH2 0x77D JUMP JUMPDEST PUSH1 0x40 MLOAD DUP1 SWAP2 SUB SWAP1 LOG3 JUMPDEST POP POP POP SWAP8 SWAP7 POP POP POP POP POP POP POP JUMP JUMPDEST PUSH1 0x3 DUP2 DUP2 SLOAD DUP2 LT PUSH2 0x3F1 JUMPI PUSH1 0x0 DUP1 REVERT JUMPDEST PUSH1 0x0 SWAP2 DUP3 MSTORE PUSH1 0x20 SWAP1 SWAP2 KECCAK256 ADD SLOAD PUSH1 0x1 PUSH1 0x1 PUSH1 0xA0 SHL SUB AND SWAP1 POP DUP2 JUMP JUMPDEST PUSH1 0x2 PUSH1 0x20 SWAP1 DUP2 MSTORE PUSH1 0x0 SWAP3 DUP4 MSTORE PUSH1 0x40 DUP1 DUP5 KECCAK256 SWAP1 SWAP2 MSTORE SWAP1 DUP3 MSTORE SWAP1 KECCAK256 SLOAD PUSH1 0x1 PUSH1 0x1 PUSH1 0xA0 SHL SUB AND DUP2 JUMP JUMPDEST PUSH1 0x40 MLOAD PUSH2 0x440 PUSH1 0x20 DUP3 ADD PUSH2 0x519 JUMP JUMPDEST PUSH1 0x1F NOT DUP3 DUP3 SUB DUP2 ADD DUP4 MSTORE PUSH1 0x1F SWAP1 SWAP2 ADD AND PUSH1 0x40 DUP2 SWAP1 MSTORE PUSH2 0x462 SWAP2 SWAP1 PUSH1 0x20 ADD PUSH2 0x6C5 JUMP JUMPDEST PUSH1 0x40 MLOAD PUSH1 0x20 DUP2 DUP4 SUB SUB DUP2 MSTORE SWAP1 PUSH1 0x40 MSTORE DUP1 MLOAD SWAP1 PUSH1 0x20 ADD KECCAK256 DUP2 JUMP JUMPDEST PUSH1 0x1 SLOAD PUSH1 0x1 PUSH1 0x1 PUSH1 0xA0 SHL SUB AND CALLER EQ PUSH2 0x4A5 JUMPI PUSH1 0x40 MLOAD PUSH3 0x461BCD PUSH1 0xE5 SHL DUP2 MSTORE PUSH1 0x4 ADD PUSH2 0x18E SWAP1 PUSH2 0x83D JUMP JUMPDEST PUSH1 0x1 DUP1 SLOAD PUSH1 0x1 PUSH1 0x1 PUSH1 0xA0 SHL SUB NOT AND PUSH1 0x1 PUSH1 0x1 PUSH1 0xA0 SHL SUB SWAP3 SWAP1 SWAP3 AND SWAP2 SWAP1 SWAP2 OR SWAP1 SSTORE JUMP JUMPDEST PUSH1 0x3 SLOAD SWAP1 JUMP JUMPDEST PUSH1 0x1 SLOAD PUSH1 0x1 PUSH1 0x1 PUSH1 0xA0 SHL SUB AND CALLER EQ PUSH2 0x4F7 JUMPI PUSH1 0x40 MLOAD PUSH3 0x461BCD PUSH1 0xE5 SHL DUP2 MSTORE PUSH1 0x4 ADD PUSH2 0x18E SWAP1 PUSH2 0x83D JUMP JUMPDEST PUSH1 0x0 DUP1 SLOAD PUSH1 0x1 PUSH1 0x1 PUSH1 0xA0 SHL SUB NOT AND PUSH1 0x1 PUSH1 0x1 PUSH1 0xA0 SHL SUB SWAP3 SWAP1 SWAP3 AND SWAP2 SWAP1 SWAP2 OR SWAP1 SSTORE JUMP JUMPDEST PUSH2 0xA8A DUP1 PUSH2 0x86C DUP4 CODECOPY ADD SWAP1 JUMP JUMPDEST DUP1 CALLDATALOAD PUSH1 0x1 PUSH1 0x1 PUSH1 0xA0 SHL SUB DUP2 AND DUP2 EQ PUSH2 0x53D JUMPI PUSH1 0x0 DUP1 REVERT JUMPDEST SWAP2 SWAP1 POP JUMP JUMPDEST DUP1 CALLDATALOAD PUSH1 0x7 DUP2 SWAP1 SIGNEXTEND DUP2 EQ PUSH2 0x53D JUMPI PUSH1 0x0 DUP1 REVERT JUMPDEST PUSH1 0x0 PUSH1 0x20 DUP3 DUP5 SUB SLT ISZERO PUSH2 0x565 JUMPI DUP1 DUP2 REVERT JUMPDEST PUSH2 0x56E DUP3 PUSH2 0x526 JUMP JUMPDEST SWAP4 SWAP3 POP POP POP JUMP JUMPDEST PUSH1 0x0 DUP1 PUSH1 0x40 DUP4 DUP6 SUB SLT ISZERO PUSH2 0x587 JUMPI DUP1 DUP2 REVERT JUMPDEST PUSH2 0x590 DUP4 PUSH2 0x526 JUMP JUMPDEST SWAP2 POP PUSH2 0x59E PUSH1 0x20 DUP5 ADD PUSH2 0x526 JUMP JUMPDEST SWAP1 POP SWAP3 POP SWAP3 SWAP1 POP JUMP JUMPDEST PUSH1 0x0 PUSH1 0x20 DUP3 DUP5 SUB SLT ISZERO PUSH2 0x5B8 JUMPI DUP1 DUP2 REVERT JUMPDEST DUP2 MLOAD DUP1 ISZERO ISZERO DUP2 EQ PUSH2 0x56E JUMPI DUP2 DUP3 REVERT JUMPDEST PUSH1 0x0 DUP1 PUSH1 0x0 DUP1 PUSH1 0x0 DUP1 PUSH1 0x0 PUSH1 0xC0 DUP9 DUP11 SUB SLT ISZERO PUSH2 0x5E1 JUMPI DUP3 DUP4 REVERT JUMPDEST DUP8 CALLDATALOAD PUSH8 0xFFFFFFFFFFFFFFFF DUP1 DUP3 GT ISZERO PUSH2 0x5F8 JUMPI DUP5 DUP6 REVERT JUMPDEST DUP2 DUP11 ADD SWAP2 POP DUP11 PUSH1 0x1F DUP4 ADD SLT PUSH2 0x60B JUMPI DUP5 DUP6 REVERT JUMPDEST DUP2 CALLDATALOAD DUP2 DUP2 GT ISZERO PUSH2 0x619 JUMPI DUP6 DUP7 REVERT JUMPDEST DUP12 PUSH1 0x20 DUP3 DUP6 ADD ADD GT ISZERO PUSH2 0x62A JUMPI DUP6 DUP7 REVERT JUMPDEST PUSH1 0x20 SWAP3 DUP4 ADD SWAP10 POP SWAP8 POP PUSH2 0x640 SWAP2 DUP11 ADD SWAP1 POP PUSH2 0x526 JUMP JUMPDEST SWAP5 POP PUSH2 0x64E PUSH1 0x40 DUP10 ADD PUSH2 0x526 JUMP JUMPDEST SWAP4 POP PUSH2 0x65C PUSH1 0x60 DUP10 ADD PUSH2 0x542 JUMP JUMPDEST SWAP3 POP PUSH2 0x66A PUSH1 0x80 DUP10 ADD PUSH2 0x542 JUMP JUMPDEST SWAP2 POP PUSH2 0x678 PUSH1 0xA0 DUP10 ADD PUSH2 0x542 JUMP JUMPDEST SWAP1 POP SWAP3 SWAP6 SWAP9 SWAP2 SWAP5 SWAP8 POP SWAP3 SWAP6 POP JUMP JUMPDEST PUSH1 0x0 PUSH1 0x20 DUP3 DUP5 SUB SLT ISZERO PUSH2 0x697 JUMPI DUP1 DUP2 REVERT JUMPDEST POP CALLDATALOAD SWAP2 SWAP1 POP JUMP JUMPDEST PUSH12 0xFFFFFFFFFFFFFFFFFFFFFFFF NOT PUSH1 0x60 SWAP4 DUP5 SHL DUP2 AND DUP3 MSTORE SWAP2 SWAP1 SWAP3 SHL AND PUSH1 0x14 DUP3 ADD MSTORE PUSH1 0x28 ADD SWAP1 JUMP JUMPDEST PUSH1 0x0 DUP3 MLOAD DUP2 JUMPDEST DUP2 DUP2 LT ISZERO PUSH2 0x6E5 JUMPI PUSH1 0x20 DUP2 DUP7 ADD DUP2 ADD MLOAD DUP6 DUP4 ADD MSTORE ADD PUSH2 0x6CB JUMP JUMPDEST DUP2 DUP2 GT ISZERO PUSH2 0x6F3 JUMPI DUP3 DUP3 DUP6 ADD MSTORE JUMPDEST POP SWAP2 SWAP1 SWAP2 ADD SWAP3 SWAP2 POP POP JUMP JUMPDEST PUSH1 0x1 PUSH1 0x1 PUSH1 0xA0 SHL SUB SWAP2 SWAP1 SWAP2 AND DUP2 MSTORE PUSH1 0x20 ADD SWAP1 JUMP JUMPDEST PUSH1 0x1 PUSH1 0x1 PUSH1 0xA0 SHL SUB DUP10 DUP2 AND DUP3 MSTORE PUSH1 0xE0 PUSH1 0x20 DUP4 ADD DUP2 SWAP1 MSTORE DUP3 ADD DUP9 SWAP1 MSTORE PUSH1 0x0 SWAP1 PUSH2 0x100 DUP10 DUP12 DUP3 DUP7 ADD CALLDATACOPY DUP4 DUP11 ADD DUP2 ADD SWAP3 SWAP1 SWAP3 MSTORE SWAP7 DUP8 AND PUSH1 0x40 DUP4 ADD MSTORE SWAP5 SWAP1 SWAP6 AND PUSH1 0x60 DUP7 ADD MSTORE PUSH1 0x7 SWAP3 DUP4 SIGNEXTEND PUSH1 0x80 DUP7 ADD MSTORE SWAP1 DUP3 SIGNEXTEND PUSH1 0xA0 DUP6 ADD MSTORE SWAP1 SIGNEXTEND PUSH1 0xC0 DUP4 ADD MSTORE PUSH1 0x1F SWAP1 SWAP3 ADD PUSH1 0x1F NOT AND ADD ADD SWAP3 SWAP2 POP POP JUMP JUMPDEST PUSH1 0x1 PUSH1 0x1 PUSH1 0xA0 SHL SUB SWAP3 SWAP1 SWAP3 AND DUP3 MSTORE PUSH1 0x20 DUP3 ADD MSTORE PUSH1 0x40 ADD SWAP1 JUMP JUMPDEST SWAP1 DUP2 MSTORE PUSH1 0x20 ADD SWAP1 JUMP JUMPDEST PUSH1 0x20 DUP1 DUP3 MSTORE PUSH1 0x17 SWAP1 DUP3 ADD MSTORE PUSH32 0x4C61756E63687061643A205A45524F5F41444452455353000000000000000000 PUSH1 0x40 DUP3 ADD MSTORE PUSH1 0x60 ADD SWAP1 JUMP JUMPDEST PUSH1 0x20 DUP1 DUP3 MSTORE PUSH1 0x16 SWAP1 DUP3 ADD MSTORE PUSH22 0x4C61756E63687061643A20504F4F4C5F455849535453 PUSH1 0x50 SHL PUSH1 0x40 DUP3 ADD MSTORE PUSH1 0x60 ADD SWAP1 JUMP JUMPDEST PUSH1 0x20 DUP1 DUP3 MSTORE PUSH1 0x1E SWAP1 DUP3 ADD MSTORE PUSH32 0x4C61756E63687061643A204944454E544943414C5F4144445245535345530000 PUSH1 0x40 DUP3 ADD MSTORE PUSH1 0x60 ADD SWAP1 JUMP JUMPDEST PUSH1 0x20 DUP1 DUP3 MSTORE PUSH1 0x14 SWAP1 DUP3 ADD MSTORE PUSH20 0x2630BAB731B43830B21D102327A92124A22222A7 PUSH1 0x61 SHL PUSH1 0x40 DUP3 ADD MSTORE PUSH1 0x60 ADD SWAP1 JUMP INVALID PUSH1 0x80 PUSH1 0x40 MSTORE CALLVALUE DUP1 ISZERO PUSH2 0x10 JUMPI PUSH1 0x0 DUP1 REVERT JUMPDEST POP PUSH1 0x0 DUP1 SLOAD PUSH1 0x1 PUSH1 0x1 PUSH1 0xA0 SHL SUB NOT AND CALLER OR SWAP1 SSTORE PUSH2 0xA58 DUP1 PUSH2 0x32 PUSH1 0x0 CODECOPY PUSH1 0x0 RETURN INVALID PUSH1 0x80 PUSH1 0x40 MSTORE CALLVALUE DUP1 ISZERO PUSH2 0x10 JUMPI PUSH1 0x0 DUP1 REVERT JUMPDEST POP PUSH1 0x4 CALLDATASIZE LT PUSH2 0x62 JUMPI PUSH1 0x0 CALLDATALOAD PUSH1 0xE0 SHR DUP1 PUSH4 0x8BF598D EQ PUSH2 0x67 JUMPI DUP1 PUSH4 0x4728432E EQ PUSH2 0x90 JUMPI DUP1 PUSH4 0x7E5DBF49 EQ PUSH2 0xA3 JUMPI DUP1 PUSH4 0xD0FC4A2B EQ PUSH2 0xB6 JUMPI DUP1 PUSH4 0xD78A42AC EQ PUSH2 0x90 JUMPI DUP1 PUSH4 0xE5DD1A36 EQ PUSH2 0xC9 JUMPI JUMPDEST PUSH1 0x0 DUP1 REVERT JUMPDEST PUSH2 0x7A PUSH2 0x75 CALLDATASIZE PUSH1 0x4 PUSH2 0x73B JUMP JUMPDEST PUSH2 0xDC JUMP JUMPDEST PUSH1 0x40 MLOAD PUSH2 0x87 SWAP2 SWAP1 PUSH2 0x7BB JUMP JUMPDEST PUSH1 0x40 MLOAD DUP1 SWAP2 SUB SWAP1 RETURN JUMPDEST PUSH2 0x7A PUSH2 0x9E CALLDATASIZE PUSH1 0x4 PUSH2 0x73B JUMP JUMPDEST PUSH2 0x202 JUMP JUMPDEST PUSH2 0x7A PUSH2 0xB1 CALLDATASIZE PUSH1 0x4 PUSH2 0x642 JUMP JUMPDEST PUSH2 0x250 JUMP JUMPDEST PUSH2 0x7A PUSH2 0xC4 CALLDATASIZE PUSH1 0x4 PUSH2 0x73B JUMP JUMPDEST PUSH2 0x323 JUMP JUMPDEST PUSH2 0x7A PUSH2 0xD7 CALLDATASIZE PUSH1 0x4 PUSH2 0x73B JUMP JUMPDEST PUSH2 0x35A JUMP JUMPDEST CALLER PUSH1 0x0 SWAP1 DUP2 MSTORE PUSH1 0x6 PUSH1 0x20 MSTORE PUSH1 0x40 DUP2 KECCAK256 SLOAD PUSH1 0x7 SWAP1 DUP2 SIGNEXTEND SWAP1 SIGNEXTEND PUSH2 0x118 JUMPI PUSH1 0x40 MLOAD PUSH3 0x461BCD PUSH1 0xE5 SHL DUP2 MSTORE PUSH1 0x4 ADD PUSH2 0x10F SWAP1 PUSH2 0x835 JUMP JUMPDEST PUSH1 0x40 MLOAD DUP1 SWAP2 SUB SWAP1 REVERT JUMPDEST CALLER PUSH1 0x0 SWAP1 DUP2 MSTORE PUSH1 0x7 PUSH1 0x20 DUP2 DUP2 MSTORE PUSH1 0x40 DUP1 DUP5 KECCAK256 SLOAD PUSH1 0x6 SWAP1 SWAP3 MSTORE SWAP1 SWAP3 KECCAK256 SLOAD PUSH2 0x141 SWAP3 DUP3 SIGNEXTEND SWAP2 SIGNEXTEND PUSH2 0x980 JUMP JUMPDEST PUSH1 0x7 SIGNEXTEND DUP3 PUSH1 0x7 SIGNEXTEND SGT ISZERO PUSH2 0x166 JUMPI PUSH1 0x40 MLOAD PUSH3 0x461BCD PUSH1 0xE5 SHL DUP2 MSTORE PUSH1 0x4 ADD PUSH2 0x10F SWAP1 PUSH2 0x7C6 JUMP JUMPDEST CALLER PUSH1 0x0 SWAP1 DUP2 MSTORE PUSH1 0x7 PUSH1 0x20 DUP2 SWAP1 MSTORE PUSH1 0x40 DUP3 KECCAK256 DUP1 SLOAD DUP6 SWAP4 SWAP2 SWAP3 PUSH2 0x189 SWAP2 DUP6 SWAP2 SIGNEXTEND PUSH2 0x8E5 JUMP JUMPDEST SWAP3 POP PUSH2 0x100 EXP DUP2 SLOAD DUP2 PUSH8 0xFFFFFFFFFFFFFFFF MUL NOT AND SWAP1 DUP4 PUSH1 0x7 SIGNEXTEND PUSH8 0xFFFFFFFFFFFFFFFF AND MUL OR SWAP1 SSTORE POP PUSH1 0x0 PUSH2 0x1D5 PUSH1 0x4 PUSH1 0x0 SWAP1 SLOAD SWAP1 PUSH2 0x100 EXP SWAP1 DIV PUSH1 0x1 PUSH1 0x1 PUSH1 0xA0 SHL SUB AND CALLER ADDRESS DUP7 PUSH2 0x49D JUMP JUMPDEST SWAP1 POP PUSH1 0x16 DUP2 EQ PUSH2 0x1F7 JUMPI PUSH1 0x40 MLOAD PUSH3 0x461BCD PUSH1 0xE5 SHL DUP2 MSTORE PUSH1 0x4 ADD PUSH2 0x10F SWAP1 PUSH2 0x8BC JUMP JUMPDEST PUSH1 0x1 SWAP2 POP POP JUMPDEST SWAP2 SWAP1 POP JUMP JUMPDEST PUSH1 0x1 SLOAD PUSH1 0x0 SWAP1 PUSH1 0x1 PUSH1 0x1 PUSH1 0xA0 SHL SUB AND CALLER EQ PUSH2 0x22F JUMPI PUSH1 0x40 MLOAD PUSH3 0x461BCD PUSH1 0xE5 SHL DUP2 MSTORE PUSH1 0x4 ADD PUSH2 0x10F SWAP1 PUSH2 0x812 JUMP JUMPDEST PUSH1 0x3 SLOAD PUSH2 0x247 SWAP1 PUSH1 0x1 PUSH1 0x1 PUSH1 0xA0 SHL SUB AND ADDRESS CALLER DUP6 PUSH2 0x49D JUMP JUMPDEST POP PUSH1 0x1 SWAP3 SWAP2 POP POP JUMP JUMPDEST PUSH1 0x1 DUP1 SLOAD PUSH1 0x1 PUSH1 0x1 PUSH1 0xA0 SHL SUB NOT AND PUSH1 0x1 PUSH1 0x1 PUSH1 0xA0 SHL SUB DUP11 AND OR SWAP1 SSTORE PUSH1 0x0 PUSH2 0x279 PUSH1 0x2 DUP10 DUP10 PUSH2 0x580 JUMP JUMPDEST POP POP PUSH1 0x3 DUP1 SLOAD PUSH1 0x1 PUSH1 0x1 PUSH1 0xA0 SHL SUB NOT SWAP1 DUP2 AND PUSH1 0x1 PUSH1 0x1 PUSH1 0xA0 SHL SUB SWAP8 DUP9 AND OR SWAP1 SWAP2 SSTORE PUSH1 0x4 DUP1 SLOAD SWAP1 SWAP2 AND SWAP5 SWAP1 SWAP6 AND SWAP4 SWAP1 SWAP4 OR PUSH8 0xFFFFFFFFFFFFFFFF PUSH1 0xA0 SHL NOT AND PUSH1 0x1 PUSH1 0xA0 SHL PUSH8 0xFFFFFFFFFFFFFFFF PUSH1 0x7 SWAP5 DUP6 SIGNEXTEND DUP2 AND SWAP2 SWAP1 SWAP2 MUL SWAP2 SWAP1 SWAP2 OR SWAP1 SWAP5 SSTORE PUSH1 0x5 DUP1 SLOAD PUSH8 0xFFFFFFFFFFFFFFFF NOT AND SWAP2 DUP4 SIGNEXTEND DUP6 AND SWAP2 SWAP1 SWAP2 OR PUSH16 0xFFFFFFFFFFFFFFFF0000000000000000 NOT AND PUSH9 0x10000000000000000 SWAP4 SWAP1 SWAP3 SIGNEXTEND SWAP1 SWAP4 AND SWAP2 SWAP1 SWAP2 MUL OR SWAP1 SSTORE POP PUSH1 0x1 SWAP3 SWAP2 POP POP JUMP JUMPDEST CALLER PUSH1 0x0 SWAP1 DUP2 MSTORE PUSH1 0x6 PUSH1 0x20 MSTORE PUSH1 0x40 SWAP1 KECCAK256 DUP1 SLOAD PUSH1 0x7 DUP4 SWAP1 SIGNEXTEND PUSH8 0xFFFFFFFFFFFFFFFF AND PUSH8 0xFFFFFFFFFFFFFFFF NOT SWAP1 SWAP2 AND OR SWAP1 SSTORE PUSH1 0x1 SWAP2 SWAP1 POP JUMP JUMPDEST CALLER PUSH1 0x0 SWAP1 DUP2 MSTORE PUSH1 0x6 PUSH1 0x20 MSTORE PUSH1 0x40 DUP2 KECCAK256 SLOAD PUSH1 0x7 SWAP1 DUP2 SIGNEXTEND SWAP1 SIGNEXTEND PUSH2 0x38D JUMPI PUSH1 0x40 MLOAD PUSH3 0x461BCD PUSH1 0xE5 SHL DUP2 MSTORE PUSH1 0x4 ADD PUSH2 0x10F SWAP1 PUSH2 0x835 JUMP JUMPDEST PUSH1 0x4 SLOAD CALLER PUSH1 0x0 SWAP1 DUP2 MSTORE PUSH1 0x7 PUSH1 0x20 DUP2 SWAP1 MSTORE PUSH1 0x40 DUP3 KECCAK256 SLOAD SWAP2 SWAP3 PUSH2 0x3B9 SWAP3 PUSH1 0x1 PUSH1 0xA0 SHL SWAP1 SWAP2 DIV DUP3 SIGNEXTEND SWAP2 SIGNEXTEND PUSH2 0x935 JUMP JUMPDEST CALLER PUSH1 0x0 SWAP1 DUP2 MSTORE PUSH1 0x8 PUSH1 0x20 MSTORE PUSH1 0x40 DUP2 KECCAK256 SLOAD SWAP2 SWAP3 POP SWAP1 PUSH2 0x3DA SWAP1 PUSH1 0x7 SIGNEXTEND DUP4 PUSH2 0x980 JUMP JUMPDEST SWAP1 POP DUP1 PUSH1 0x7 SIGNEXTEND DUP5 PUSH1 0x7 SIGNEXTEND SGT ISZERO PUSH2 0x402 JUMPI PUSH1 0x40 MLOAD PUSH3 0x461BCD PUSH1 0xE5 SHL DUP2 MSTORE PUSH1 0x4 ADD PUSH2 0x10F SWAP1 PUSH2 0x86C JUMP JUMPDEST CALLER PUSH1 0x0 SWAP1 DUP2 MSTORE PUSH1 0x8 PUSH1 0x20 MSTORE PUSH1 0x40 DUP2 KECCAK256 DUP1 SLOAD DUP7 SWAP3 SWAP1 PUSH2 0x424 SWAP1 DUP5 SWAP1 PUSH1 0x7 SIGNEXTEND PUSH2 0x8E5 JUMP JUMPDEST SWAP3 POP PUSH2 0x100 EXP DUP2 SLOAD DUP2 PUSH8 0xFFFFFFFFFFFFFFFF MUL NOT AND SWAP1 DUP4 PUSH1 0x7 SIGNEXTEND PUSH8 0xFFFFFFFFFFFFFFFF AND MUL OR SWAP1 SSTORE POP PUSH1 0x0 PUSH2 0x470 PUSH1 0x3 PUSH1 0x0 SWAP1 SLOAD SWAP1 PUSH2 0x100 EXP SWAP1 DIV PUSH1 0x1 PUSH1 0x1 PUSH1 0xA0 SHL SUB AND CALLER ADDRESS DUP9 PUSH2 0x49D JUMP JUMPDEST SWAP1 POP PUSH1 0x16 DUP2 EQ PUSH2 0x492 JUMPI PUSH1 0x40 MLOAD PUSH3 0x461BCD PUSH1 0xE5 SHL DUP2 MSTORE PUSH1 0x4 ADD PUSH2 0x10F SWAP1 PUSH2 0x8BC JUMP JUMPDEST POP PUSH1 0x1 SWAP5 SWAP4 POP POP POP POP JUMP JUMPDEST PUSH1 0x0 DUP1 PUSH1 0x0 PUSH2 0x167 PUSH1 0x1 PUSH1 0x1 PUSH1 0xA0 SHL SUB AND PUSH4 0xECA36917 PUSH1 0xE0 SHL DUP9 DUP9 DUP9 DUP9 PUSH1 0x40 MLOAD PUSH1 0x24 ADD PUSH2 0x4CD SWAP5 SWAP4 SWAP3 SWAP2 SWAP1 PUSH2 0x78E JUMP JUMPDEST PUSH1 0x40 DUP1 MLOAD PUSH1 0x1F NOT DUP2 DUP5 SUB ADD DUP2 MSTORE SWAP2 DUP2 MSTORE PUSH1 0x20 DUP3 ADD DUP1 MLOAD PUSH1 0x1 PUSH1 0x1 PUSH1 0xE0 SHL SUB AND PUSH1 0x1 PUSH1 0x1 PUSH1 0xE0 SHL SUB NOT SWAP1 SWAP5 AND SWAP4 SWAP1 SWAP4 OR SWAP1 SWAP3 MSTORE SWAP1 MLOAD PUSH2 0x50B SWAP2 SWAP1 PUSH2 0x755 JUMP JUMPDEST PUSH1 0x0 PUSH1 0x40 MLOAD DUP1 DUP4 SUB DUP2 PUSH1 0x0 DUP7 GAS CALL SWAP2 POP POP RETURNDATASIZE DUP1 PUSH1 0x0 DUP2 EQ PUSH2 0x548 JUMPI PUSH1 0x40 MLOAD SWAP2 POP PUSH1 0x1F NOT PUSH1 0x3F RETURNDATASIZE ADD AND DUP3 ADD PUSH1 0x40 MSTORE RETURNDATASIZE DUP3 MSTORE RETURNDATASIZE PUSH1 0x0 PUSH1 0x20 DUP5 ADD RETURNDATACOPY PUSH2 0x54D JUMP JUMPDEST PUSH1 0x60 SWAP2 POP JUMPDEST POP SWAP2 POP SWAP2 POP DUP2 PUSH2 0x55E JUMPI PUSH1 0x15 PUSH2 0x572 JUMP JUMPDEST DUP1 DUP1 PUSH1 0x20 ADD SWAP1 MLOAD DUP2 ADD SWAP1 PUSH2 0x572 SWAP2 SWAP1 PUSH2 0x713 JUMP JUMPDEST PUSH1 0x3 SIGNEXTEND SWAP8 SWAP7 POP POP POP POP POP POP POP JUMP JUMPDEST DUP3 DUP1 SLOAD PUSH2 0x58C SWAP1 PUSH2 0x9D1 JUMP JUMPDEST SWAP1 PUSH1 0x0 MSTORE PUSH1 0x20 PUSH1 0x0 KECCAK256 SWAP1 PUSH1 0x1F ADD PUSH1 0x20 SWAP1 DIV DUP2 ADD SWAP3 DUP3 PUSH2 0x5AE JUMPI PUSH1 0x0 DUP6 SSTORE PUSH2 0x5F4 JUMP JUMPDEST DUP3 PUSH1 0x1F LT PUSH2 0x5C7 JUMPI DUP3 DUP1 ADD PUSH1 0xFF NOT DUP3 CALLDATALOAD AND OR DUP6 SSTORE PUSH2 0x5F4 JUMP JUMPDEST DUP3 DUP1 ADD PUSH1 0x1 ADD DUP6 SSTORE DUP3 ISZERO PUSH2 0x5F4 JUMPI SWAP2 DUP3 ADD JUMPDEST DUP3 DUP2 GT ISZERO PUSH2 0x5F4 JUMPI DUP3 CALLDATALOAD DUP3 SSTORE SWAP2 PUSH1 0x20 ADD SWAP2 SWAP1 PUSH1 0x1 ADD SWAP1 PUSH2 0x5D9 JUMP JUMPDEST POP PUSH2 0x600 SWAP3 SWAP2 POP PUSH2 0x604 JUMP JUMPDEST POP SWAP1 JUMP JUMPDEST JUMPDEST DUP1 DUP3 GT ISZERO PUSH2 0x600 JUMPI PUSH1 0x0 DUP2 SSTORE PUSH1 0x1 ADD PUSH2 0x605 JUMP JUMPDEST DUP1 CALLDATALOAD PUSH1 0x1 PUSH1 0x1 PUSH1 0xA0 SHL SUB DUP2 AND DUP2 EQ PUSH2 0x1FD JUMPI PUSH1 0x0 DUP1 REVERT JUMPDEST DUP1 CALLDATALOAD PUSH1 0x7 DUP2 SWAP1 SIGNEXTEND DUP2 EQ PUSH2 0x1FD JUMPI PUSH1 0x0 DUP1 REVERT JUMPDEST PUSH1 0x0 DUP1 PUSH1 0x0 DUP1 PUSH1 0x0 DUP1 PUSH1 0x0 DUP1 PUSH1 0xE0 DUP10 DUP12 SUB SLT ISZERO PUSH2 0x65D JUMPI DUP4 DUP5 REVERT JUMPDEST PUSH2 0x666 DUP10 PUSH2 0x619 JUMP JUMPDEST SWAP8 POP PUSH1 0x20 DUP10 ADD CALLDATALOAD PUSH8 0xFFFFFFFFFFFFFFFF DUP1 DUP3 GT ISZERO PUSH2 0x682 JUMPI DUP6 DUP7 REVERT JUMPDEST DUP2 DUP12 ADD SWAP2 POP DUP12 PUSH1 0x1F DUP4 ADD SLT PUSH2 0x695 JUMPI DUP6 DUP7 REVERT JUMPDEST DUP2 CALLDATALOAD DUP2 DUP2 GT ISZERO PUSH2 0x6A3 JUMPI DUP7 DUP8 REVERT JUMPDEST DUP13 PUSH1 0x20 DUP3 DUP6 ADD ADD GT ISZERO PUSH2 0x6B4 JUMPI DUP7 DUP8 REVERT JUMPDEST PUSH1 0x20 DUP4 ADD SWAP10 POP DUP1 SWAP9 POP POP POP POP PUSH2 0x6CC PUSH1 0x40 DUP11 ADD PUSH2 0x619 JUMP JUMPDEST SWAP5 POP PUSH2 0x6DA PUSH1 0x60 DUP11 ADD PUSH2 0x619 JUMP JUMPDEST SWAP4 POP PUSH2 0x6E8 PUSH1 0x80 DUP11 ADD PUSH2 0x630 JUMP JUMPDEST SWAP3 POP PUSH2 0x6F6 PUSH1 0xA0 DUP11 ADD PUSH2 0x630 JUMP JUMPDEST SWAP2 POP PUSH2 0x704 PUSH1 0xC0 DUP11 ADD PUSH2 0x630 JUMP JUMPDEST SWAP1 POP SWAP3 SWAP6 SWAP9 POP SWAP3 SWAP6 SWAP9 SWAP1 SWAP4 SWAP7 POP JUMP JUMPDEST PUSH1 0x0 PUSH1 0x20 DUP3 DUP5 SUB SLT ISZERO PUSH2 0x724 JUMPI DUP1 DUP2 REVERT JUMPDEST DUP2 MLOAD DUP1 PUSH1 0x3 SIGNEXTEND DUP2 EQ PUSH2 0x734 JUMPI DUP2 DUP3 REVERT JUMPDEST SWAP4 SWAP3 POP POP POP JUMP JUMPDEST PUSH1 0x0 PUSH1 0x20 DUP3 DUP5 SUB SLT ISZERO PUSH2 0x74C JUMPI DUP1 DUP2 REVERT JUMPDEST PUSH2 0x734 DUP3 PUSH2 0x630 JUMP JUMPDEST PUSH1 0x0 DUP3 MLOAD DUP2 JUMPDEST DUP2 DUP2 LT ISZERO PUSH2 0x775 JUMPI PUSH1 0x20 DUP2 DUP7 ADD DUP2 ADD MLOAD DUP6 DUP4 ADD MSTORE ADD PUSH2 0x75B JUMP JUMPDEST DUP2 DUP2 GT ISZERO PUSH2 0x783 JUMPI DUP3 DUP3 DUP6 ADD MSTORE JUMPDEST POP SWAP2 SWAP1 SWAP2 ADD SWAP3 SWAP2 POP POP JUMP JUMPDEST PUSH1 0x1 PUSH1 0x1 PUSH1 0xA0 SHL SUB SWAP5 DUP6 AND DUP2 MSTORE SWAP3 DUP5 AND PUSH1 0x20 DUP5 ADD MSTORE SWAP3 AND PUSH1 0x40 DUP3 ADD MSTORE PUSH1 0x7 SWAP2 SWAP1 SWAP2 SIGNEXTEND PUSH1 0x60 DUP3 ADD MSTORE PUSH1 0x80 ADD SWAP1 JUMP JUMPDEST SWAP1 ISZERO ISZERO DUP2 MSTORE PUSH1 0x20 ADD SWAP1 JUMP JUMPDEST PUSH1 0x20 DUP1 DUP3 MSTORE PUSH1 0x2C SWAP1 DUP3 ADD MSTORE PUSH32 0x62757920616D6F756E7420697320746F6F206869676820666F722073656E6465 PUSH1 0x40 DUP3 ADD MSTORE PUSH12 0x391030B63637B1B0BA34B7B7 PUSH1 0xA1 SHL PUSH1 0x60 DUP3 ADD MSTORE PUSH1 0x80 ADD SWAP1 JUMP JUMPDEST PUSH1 0x20 DUP1 DUP3 MSTORE PUSH1 0x9 SWAP1 DUP3 ADD MSTORE PUSH9 0x3337B93134B23232B7 PUSH1 0xB9 SHL PUSH1 0x40 DUP3 ADD MSTORE PUSH1 0x60 ADD SWAP1 JUMP JUMPDEST PUSH1 0x20 DUP1 DUP3 MSTORE PUSH1 0x18 SWAP1 DUP3 ADD MSTORE PUSH32 0x6E6F20616C6C6F636174696F6E20666F722073656E6465720000000000000000 PUSH1 0x40 DUP3 ADD MSTORE PUSH1 0x60 ADD SWAP1 JUMP JUMPDEST PUSH1 0x20 DUP1 DUP3 MSTORE PUSH1 0x30 SWAP1 DUP3 ADD MSTORE PUSH32 0x636C61696D656420616D6F756E7420697320746F6F206869676820666F722073 PUSH1 0x40 DUP3 ADD MSTORE PUSH16 0x32B73232B91030B63637B1B0BA34B7B7 PUSH1 0x81 SHL PUSH1 0x60 DUP3 ADD MSTORE PUSH1 0x80 ADD SWAP1 JUMP JUMPDEST PUSH1 0x20 DUP1 DUP3 MSTORE PUSH1 0xF SWAP1 DUP3 ADD MSTORE PUSH15 0x151C985B9CD9995C8811985A5B1959 PUSH1 0x8A SHL PUSH1 0x40 DUP3 ADD MSTORE PUSH1 0x60 ADD SWAP1 JUMP JUMPDEST PUSH1 0x0 DUP2 PUSH1 0x7 SIGNEXTEND DUP4 PUSH1 0x7 SIGNEXTEND DUP3 DUP3 SLT DUP3 PUSH8 0x7FFFFFFFFFFFFFFF SUB DUP3 SGT DUP2 ISZERO AND ISZERO PUSH2 0x90F JUMPI PUSH2 0x90F PUSH2 0xA0C JUMP JUMPDEST DUP3 PUSH8 0x7FFFFFFFFFFFFFFF NOT SUB DUP3 SLT DUP2 AND ISZERO PUSH2 0x92C JUMPI PUSH2 0x92C PUSH2 0xA0C JUMP JUMPDEST POP ADD SWAP4 SWAP3 POP POP POP JUMP JUMPDEST PUSH1 0x0 DUP2 PUSH1 0x7 SIGNEXTEND DUP4 PUSH1 0x7 SIGNEXTEND DUP1 PUSH2 0x958 JUMPI PUSH4 0x4E487B71 PUSH1 0xE0 SHL DUP4 MSTORE PUSH1 0x12 PUSH1 0x4 MSTORE PUSH1 0x24 DUP4 REVERT JUMPDEST PUSH8 0x7FFFFFFFFFFFFFFF NOT DUP3 EQ PUSH1 0x0 NOT DUP3 EQ AND ISZERO PUSH2 0x977 JUMPI PUSH2 0x977 PUSH2 0xA0C JUMP JUMPDEST SWAP1 SDIV SWAP4 SWAP3 POP POP POP JUMP JUMPDEST PUSH1 0x0 DUP2 PUSH1 0x7 SIGNEXTEND DUP4 PUSH1 0x7 SIGNEXTEND DUP3 DUP2 SLT DUP2 PUSH8 0x7FFFFFFFFFFFFFFF NOT ADD DUP4 SLT DUP2 ISZERO AND ISZERO PUSH2 0x9AB JUMPI PUSH2 0x9AB PUSH2 0xA0C JUMP JUMPDEST DUP2 PUSH8 0x7FFFFFFFFFFFFFFF ADD DUP4 SGT DUP2 AND ISZERO PUSH2 0x9C7 JUMPI PUSH2 0x9C7 PUSH2 0xA0C JUMP JUMPDEST POP SWAP1 SUB SWAP4 SWAP3 POP POP POP JUMP JUMPDEST PUSH1 0x2 DUP2 DIV PUSH1 0x1 DUP3 AND DUP1 PUSH2 0x9E5 JUMPI PUSH1 0x7F DUP3 AND SWAP2 POP JUMPDEST PUSH1 0x20 DUP3 LT DUP2 EQ ISZERO PUSH2 0xA06 JUMPI PUSH4 0x4E487B71 PUSH1 0xE0 SHL PUSH1 0x0 MSTORE PUSH1 0x22 PUSH1 0x4 MSTORE PUSH1 0x24 PUSH1 0x0 REVERT JUMPDEST POP SWAP2 SWAP1 POP JUMP JUMPDEST PUSH4 0x4E487B71 PUSH1 0xE0 SHL PUSH1 0x0 MSTORE PUSH1 0x11 PUSH1 0x4 MSTORE PUSH1 0x24 PUSH1 0x0 REVERT INVALID LOG2 PUSH5 0x6970667358 0x22 SLT KECCAK256 0x1F 0x5D SWAP12 0xE2 0xDE 0xB2 0xCC PUSH13 0x5228491748C9DA8625B0BF5649 0x27 PUSH11 0x7AFB51E7A8EEFC66496473 PUSH16 0x6C63430008000033A264697066735822 SLT KECCAK256 0xDD SWAP10 0xFC EQ 0x4D 0xCB 0xF6 0xE1 LOG4 0xC3 0xB4 0xE4 PUSH12 0x2FCEA72B59EE7ABA9B9ABDDA PUSH3 0xAAEA02 0xCE PUSH17 0x2064736F6C634300080000330000000000 "
		},
		"gasEstimates": {
			"creation": {
				"codeDepositCost": "981400",
				"executionCost": "infinite",
				"totalCost": "infinite"
			},
			"external": {
				"INIT_CODE_POOL_HASH()": "infinite",
				"allPools(uint256)": "2105",
				"allPoolsLength()": "1094",
				"createPool(string,address,address,int64,int64,int64)": "infinite",
				"feeTo()": "1071",
				"feeToSetter()": "1093",
				"getPool(address,address)": "infinite",
				"setFeeTo(address)": "22099",
				"setFeeToSetter(address)": "22055"
			}
		},
		"methodIdentifiers": {
			"INIT_CODE_POOL_HASH()": "5fdd14fc",
			"allPools(uint256)": "41d1de97",
			"allPoolsLength()": "efde4e64",
			"createPool(string,address,address,int64,int64,int64)": "0fac0876",
			"feeTo()": "017e7e58",
			"feeToSetter()": "094b7415",
			"getPool(address,address)": "531aa03e",
			"setFeeTo(address)": "f46901ed",
			"setFeeToSetter(address)": "a2e74af6"
		}
	},
	"abi": [
		{
			"inputs": [
				{
					"internalType": "address",
					"name": "_feeToSetter",
					"type": "address"
				}
			],
			"stateMutability": "nonpayable",
			"type": "constructor"
		},
		{
			"anonymous": false,
			"inputs": [
				{
					"indexed": true,
					"internalType": "address",
					"name": "poolToken",
					"type": "address"
				},
				{
					"indexed": true,
					"internalType": "address",
					"name": "quoteToken",
					"type": "address"
				},
				{
					"indexed": false,
					"internalType": "address",
					"name": "pool",
					"type": "address"
				},
				{
					"indexed": false,
					"internalType": "uint256",
					"name": "",
					"type": "uint256"
				}
			],
			"name": "PoolCreated",
			"type": "event"
		},
		{
			"inputs": [],
			"name": "INIT_CODE_POOL_HASH",
			"outputs": [
				{
					"internalType": "bytes32",
					"name": "",
					"type": "bytes32"
				}
			],
			"stateMutability": "view",
			"type": "function"
		},
		{
			"inputs": [
				{
					"internalType": "uint256",
					"name": "",
					"type": "uint256"
				}
			],
			"name": "allPools",
			"outputs": [
				{
					"internalType": "address",
					"name": "",
					"type": "address"
				}
			],
			"stateMutability": "view",
			"type": "function"
		},
		{
			"inputs": [],
			"name": "allPoolsLength",
			"outputs": [
				{
					"internalType": "uint256",
					"name": "",
					"type": "uint256"
				}
			],
			"stateMutability": "view",
			"type": "function"
		},
		{
			"inputs": [
				{
					"internalType": "string",
					"name": "name",
					"type": "string"
				},
				{
					"internalType": "address",
					"name": "poolToken",
					"type": "address"
				},
				{
					"internalType": "address",
					"name": "quoteToken",
					"type": "address"
				},
				{
					"internalType": "int64",
					"name": "price",
					"type": "int64"
				},
				{
					"internalType": "int64",
					"name": "initialSupply",
					"type": "int64"
				},
				{
					"internalType": "int64",
					"name": "totalSupply",
					"type": "int64"
				}
			],
			"name": "createPool",
			"outputs": [
				{
					"internalType": "address",
					"name": "pool",
					"type": "address"
				}
			],
			"stateMutability": "nonpayable",
			"type": "function"
		},
		{
			"inputs": [],
			"name": "feeTo",
			"outputs": [
				{
					"internalType": "address",
					"name": "",
					"type": "address"
				}
			],
			"stateMutability": "view",
			"type": "function"
		},
		{
			"inputs": [],
			"name": "feeToSetter",
			"outputs": [
				{
					"internalType": "address",
					"name": "",
					"type": "address"
				}
			],
			"stateMutability": "view",
			"type": "function"
		},
		{
			"inputs": [
				{
					"internalType": "address",
					"name": "",
					"type": "address"
				},
				{
					"internalType": "address",
					"name": "",
					"type": "address"
				}
			],
			"name": "getPool",
			"outputs": [
				{
					"internalType": "address",
					"name": "",
					"type": "address"
				}
			],
			"stateMutability": "view",
			"type": "function"
		},
		{
			"inputs": [
				{
					"internalType": "address",
					"name": "_feeTo",
					"type": "address"
				}
			],
			"name": "setFeeTo",
			"outputs": [],
			"stateMutability": "nonpayable",
			"type": "function"
		},
		{
			"inputs": [
				{
					"internalType": "address",
					"name": "_feeToSetter",
					"type": "address"
				}
			],
			"name": "setFeeToSetter",
			"outputs": [],
			"stateMutability": "nonpayable",
			"type": "function"
		}
	]
}