{
	"data": {
		"bytecode": {
			"linkReferences": {},
			"object": "608060405234801561001057600080fd5b50600080546001600160a01b03191633179055610a58806100326000396000f3fe608060405234801561001057600080fd5b50600436106100625760003560e01c806308bf598d146100675780634728432e146100905780637e5dbf49146100a3578063d0fc4a2b146100b6578063d78a42ac14610090578063e5dd1a36146100c9575b600080fd5b61007a61007536600461073b565b6100dc565b60405161008791906107bb565b60405180910390f35b61007a61009e36600461073b565b610202565b61007a6100b1366004610642565b610250565b61007a6100c436600461073b565b610323565b61007a6100d736600461073b565b61035a565b33600090815260066020526040812054600790810b900b6101185760405162461bcd60e51b815260040161010f90610835565b60405180910390fd5b3360009081526007602081815260408084205460069092529092205461014192820b910b610980565b60070b8260070b13156101665760405162461bcd60e51b815260040161010f906107c6565b33600090815260076020819052604082208054859391926101899185910b6108e5565b92506101000a81548167ffffffffffffffff021916908360070b67ffffffffffffffff16021790555060006101d5600460009054906101000a90046001600160a01b031633308661049d565b9050601681146101f75760405162461bcd60e51b815260040161010f906108bc565b60019150505b919050565b6001546000906001600160a01b0316331461022f5760405162461bcd60e51b815260040161010f90610812565b600354610247906001600160a01b031630338561049d565b50600192915050565b600180546001600160a01b0319166001600160a01b038a16179055600061027960028989610580565b5050600380546001600160a01b03199081166001600160a01b039788161790915560048054909116949095169390931767ffffffffffffffff60a01b1916600160a01b67ffffffffffffffff600794850b811691909102919091179094556005805467ffffffffffffffff191691830b8516919091176fffffffffffffffff00000000000000001916680100000000000000009390920b9093169190910217905550600192915050565b3360009081526006602052604090208054600783900b67ffffffffffffffff1667ffffffffffffffff199091161790556001919050565b33600090815260066020526040812054600790810b900b61038d5760405162461bcd60e51b815260040161010f90610835565b60045433600090815260076020819052604082205491926103b992600160a01b909104820b910b610935565b33600090815260086020526040812054919250906103da9060070b83610980565b90508060070b8460070b13156104025760405162461bcd60e51b815260040161010f9061086c565b336000908152600860205260408120805486929061042490849060070b6108e5565b92506101000a81548167ffffffffffffffff021916908360070b67ffffffffffffffff1602179055506000610470600360009054906101000a90046001600160a01b031633308861049d565b9050601681146104925760405162461bcd60e51b815260040161010f906108bc565b506001949350505050565b60008060006101676001600160a01b031663eca3691760e01b888888886040516024016104cd949392919061078e565b60408051601f198184030181529181526020820180516001600160e01b03166001600160e01b031990941693909317909252905161050b9190610755565b6000604051808303816000865af19150503d8060008114610548576040519150601f19603f3d011682016040523d82523d6000602084013e61054d565b606091505b50915091508161055e576015610572565b808060200190518101906105729190610713565b60030b979650505050505050565b82805461058c906109d1565b90600052602060002090601f0160209004810192826105ae57600085556105f4565b82601f106105c75782800160ff198235161785556105f4565b828001600101855582156105f4579182015b828111156105f45782358255916020019190600101906105d9565b50610600929150610604565b5090565b5b808211156106005760008155600101610605565b80356001600160a01b03811681146101fd57600080fd5b8035600781900b81146101fd57600080fd5b60008060008060008060008060e0898b03121561065d578384fd5b61066689610619565b9750602089013567ffffffffffffffff80821115610682578586fd5b818b0191508b601f830112610695578586fd5b8135818111156106a3578687fd5b8c60208285010111156106b4578687fd5b6020830199508098505050506106cc60408a01610619565b94506106da60608a01610619565b93506106e860808a01610630565b92506106f660a08a01610630565b915061070460c08a01610630565b90509295985092959890939650565b600060208284031215610724578081fd5b81518060030b8114610734578182fd5b9392505050565b60006020828403121561074c578081fd5b61073482610630565b60008251815b81811015610775576020818601810151858301520161075b565b818111156107835782828501525b509190910192915050565b6001600160a01b03948516815292841660208401529216604082015260079190910b606082015260800190565b901515815260200190565b6020808252602c908201527f62757920616d6f756e7420697320746f6f206869676820666f722073656e646560408201526b391030b63637b1b0ba34b7b760a11b606082015260800190565b6020808252600990820152683337b93134b23232b760b91b604082015260600190565b60208082526018908201527f6e6f20616c6c6f636174696f6e20666f722073656e6465720000000000000000604082015260600190565b60208082526030908201527f636c61696d656420616d6f756e7420697320746f6f206869676820666f72207360408201526f32b73232b91030b63637b1b0ba34b7b760811b606082015260800190565b6020808252600f908201526e151c985b9cd9995c8811985a5b1959608a1b604082015260600190565b60008160070b8360070b82821282677fffffffffffffff0382138115161561090f5761090f610a0c565b82677fffffffffffffff1903821281161561092c5761092c610a0c565b50019392505050565b60008160070b8360070b8061095857634e487b7160e01b83526012600452602483fd5b677fffffffffffffff1982146000198214161561097757610977610a0c565b90059392505050565b60008160070b8360070b82811281677fffffffffffffff19018312811516156109ab576109ab610a0c565b81677fffffffffffffff0183138116156109c7576109c7610a0c565b5090039392505050565b6002810460018216806109e557607f821691505b60208210811415610a0657634e487b7160e01b600052602260045260246000fd5b50919050565b634e487b7160e01b600052601160045260246000fdfea26469706673582212201f5d9be2deb2cc6c5228491748c9da8625b0bf5649276a7afb51e7a8eefc664964736f6c63430008000033",
			"opcodes": "PUSH1 0x80 PUSH1 0x40 MSTORE CALLVALUE DUP1 ISZERO PUSH2 0x10 JUMPI PUSH1 0x0 DUP1 REVERT JUMPDEST POP PUSH1 0x0 DUP1 SLOAD PUSH1 0x1 PUSH1 0x1 PUSH1 0xA0 SHL SUB NOT AND CALLER OR SWAP1 SSTORE PUSH2 0xA58 DUP1 PUSH2 0x32 PUSH1 0x0 CODECOPY PUSH1 0x0 RETURN INVALID PUSH1 0x80 PUSH1 0x40 MSTORE CALLVALUE DUP1 ISZERO PUSH2 0x10 JUMPI PUSH1 0x0 DUP1 REVERT JUMPDEST POP PUSH1 0x4 CALLDATASIZE LT PUSH2 0x62 JUMPI PUSH1 0x0 CALLDATALOAD PUSH1 0xE0 SHR DUP1 PUSH4 0x8BF598D EQ PUSH2 0x67 JUMPI DUP1 PUSH4 0x4728432E EQ PUSH2 0x90 JUMPI DUP1 PUSH4 0x7E5DBF49 EQ PUSH2 0xA3 JUMPI DUP1 PUSH4 0xD0FC4A2B EQ PUSH2 0xB6 JUMPI DUP1 PUSH4 0xD78A42AC EQ PUSH2 0x90 JUMPI DUP1 PUSH4 0xE5DD1A36 EQ PUSH2 0xC9 JUMPI JUMPDEST PUSH1 0x0 DUP1 REVERT JUMPDEST PUSH2 0x7A PUSH2 0x75 CALLDATASIZE PUSH1 0x4 PUSH2 0x73B JUMP JUMPDEST PUSH2 0xDC JUMP JUMPDEST PUSH1 0x40 MLOAD PUSH2 0x87 SWAP2 SWAP1 PUSH2 0x7BB JUMP JUMPDEST PUSH1 0x40 MLOAD DUP1 SWAP2 SUB SWAP1 RETURN JUMPDEST PUSH2 0x7A PUSH2 0x9E CALLDATASIZE PUSH1 0x4 PUSH2 0x73B JUMP JUMPDEST PUSH2 0x202 JUMP JUMPDEST PUSH2 0x7A PUSH2 0xB1 CALLDATASIZE PUSH1 0x4 PUSH2 0x642 JUMP JUMPDEST PUSH2 0x250 JUMP JUMPDEST PUSH2 0x7A PUSH2 0xC4 CALLDATASIZE PUSH1 0x4 PUSH2 0x73B JUMP JUMPDEST PUSH2 0x323 JUMP JUMPDEST PUSH2 0x7A PUSH2 0xD7 CALLDATASIZE PUSH1 0x4 PUSH2 0x73B JUMP JUMPDEST PUSH2 0x35A JUMP JUMPDEST CALLER PUSH1 0x0 SWAP1 DUP2 MSTORE PUSH1 0x6 PUSH1 0x20 MSTORE PUSH1 0x40 DUP2 KECCAK256 SLOAD PUSH1 0x7 SWAP1 DUP2 SIGNEXTEND SWAP1 SIGNEXTEND PUSH2 0x118 JUMPI PUSH1 0x40 MLOAD PUSH3 0x461BCD PUSH1 0xE5 SHL DUP2 MSTORE PUSH1 0x4 ADD PUSH2 0x10F SWAP1 PUSH2 0x835 JUMP JUMPDEST PUSH1 0x40 MLOAD DUP1 SWAP2 SUB SWAP1 REVERT JUMPDEST CALLER PUSH1 0x0 SWAP1 DUP2 MSTORE PUSH1 0x7 PUSH1 0x20 DUP2 DUP2 MSTORE PUSH1 0x40 DUP1 DUP5 KECCAK256 SLOAD PUSH1 0x6 SWAP1 SWAP3 MSTORE SWAP1 SWAP3 KECCAK256 SLOAD PUSH2 0x141 SWAP3 DUP3 SIGNEXTEND SWAP2 SIGNEXTEND PUSH2 0x980 JUMP JUMPDEST PUSH1 0x7 SIGNEXTEND DUP3 PUSH1 0x7 SIGNEXTEND SGT ISZERO PUSH2 0x166 JUMPI PUSH1 0x40 MLOAD PUSH3 0x461BCD PUSH1 0xE5 SHL DUP2 MSTORE PUSH1 0x4 ADD PUSH2 0x10F SWAP1 PUSH2 0x7C6 JUMP JUMPDEST CALLER PUSH1 0x0 SWAP1 DUP2 MSTORE PUSH1 0x7 PUSH1 0x20 DUP2 SWAP1 MSTORE PUSH1 0x40 DUP3 KECCAK256 DUP1 SLOAD DUP6 SWAP4 SWAP2 SWAP3 PUSH2 0x189 SWAP2 DUP6 SWAP2 SIGNEXTEND PUSH2 0x8E5 JUMP JUMPDEST SWAP3 POP PUSH2 0x100 EXP DUP2 SLOAD DUP2 PUSH8 0xFFFFFFFFFFFFFFFF MUL NOT AND SWAP1 DUP4 PUSH1 0x7 SIGNEXTEND PUSH8 0xFFFFFFFFFFFFFFFF AND MUL OR SWAP1 SSTORE POP PUSH1 0x0 PUSH2 0x1D5 PUSH1 0x4 PUSH1 0x0 SWAP1 SLOAD SWAP1 PUSH2 0x100 EXP SWAP1 DIV PUSH1 0x1 PUSH1 0x1 PUSH1 0xA0 SHL SUB AND CALLER ADDRESS DUP7 PUSH2 0x49D JUMP JUMPDEST SWAP1 POP PUSH1 0x16 DUP2 EQ PUSH2 0x1F7 JUMPI PUSH1 0x40 MLOAD PUSH3 0x461BCD PUSH1 0xE5 SHL DUP2 MSTORE PUSH1 0x4 ADD PUSH2 0x10F SWAP1 PUSH2 0x8BC JUMP JUMPDEST PUSH1 0x1 SWAP2 POP POP JUMPDEST SWAP2 SWAP1 POP JUMP JUMPDEST PUSH1 0x1 SLOAD PUSH1 0x0 SWAP1 PUSH1 0x1 PUSH1 0x1 PUSH1 0xA0 SHL SUB AND CALLER EQ PUSH2 0x22F JUMPI PUSH1 0x40 MLOAD PUSH3 0x461BCD PUSH1 0xE5 SHL DUP2 MSTORE PUSH1 0x4 ADD PUSH2 0x10F SWAP1 PUSH2 0x812 JUMP JUMPDEST PUSH1 0x3 SLOAD PUSH2 0x247 SWAP1 PUSH1 0x1 PUSH1 0x1 PUSH1 0xA0 SHL SUB AND ADDRESS CALLER DUP6 PUSH2 0x49D JUMP JUMPDEST POP PUSH1 0x1 SWAP3 SWAP2 POP POP JUMP JUMPDEST PUSH1 0x1 DUP1 SLOAD PUSH1 0x1 PUSH1 0x1 PUSH1 0xA0 SHL SUB NOT AND PUSH1 0x1 PUSH1 0x1 PUSH1 0xA0 SHL SUB DUP11 AND OR SWAP1 SSTORE PUSH1 0x0 PUSH2 0x279 PUSH1 0x2 DUP10 DUP10 PUSH2 0x580 JUMP JUMPDEST POP POP PUSH1 0x3 DUP1 SLOAD PUSH1 0x1 PUSH1 0x1 PUSH1 0xA0 SHL SUB NOT SWAP1 DUP2 AND PUSH1 0x1 PUSH1 0x1 PUSH1 0xA0 SHL SUB SWAP8 DUP9 AND OR SWAP1 SWAP2 SSTORE PUSH1 0x4 DUP1 SLOAD SWAP1 SWAP2 AND SWAP5 SWAP1 SWAP6 AND SWAP4 SWAP1 SWAP4 OR PUSH8 0xFFFFFFFFFFFFFFFF PUSH1 0xA0 SHL NOT AND PUSH1 0x1 PUSH1 0xA0 SHL PUSH8 0xFFFFFFFFFFFFFFFF PUSH1 0x7 SWAP5 DUP6 SIGNEXTEND DUP2 AND SWAP2 SWAP1 SWAP2 MUL SWAP2 SWAP1 SWAP2 OR SWAP1 SWAP5 SSTORE PUSH1 0x5 DUP1 SLOAD PUSH8 0xFFFFFFFFFFFFFFFF NOT AND SWAP2 DUP4 SIGNEXTEND DUP6 AND SWAP2 SWAP1 SWAP2 OR PUSH16 0xFFFFFFFFFFFFFFFF0000000000000000 NOT AND PUSH9 0x10000000000000000 SWAP4 SWAP1 SWAP3 SIGNEXTEND SWAP1 SWAP4 AND SWAP2 SWAP1 SWAP2 MUL OR SWAP1 SSTORE POP PUSH1 0x1 SWAP3 SWAP2 POP POP JUMP JUMPDEST CALLER PUSH1 0x0 SWAP1 DUP2 MSTORE PUSH1 0x6 PUSH1 0x20 MSTORE PUSH1 0x40 SWAP1 KECCAK256 DUP1 SLOAD PUSH1 0x7 DUP4 SWAP1 SIGNEXTEND PUSH8 0xFFFFFFFFFFFFFFFF AND PUSH8 0xFFFFFFFFFFFFFFFF NOT SWAP1 SWAP2 AND OR SWAP1 SSTORE PUSH1 0x1 SWAP2 SWAP1 POP JUMP JUMPDEST CALLER PUSH1 0x0 SWAP1 DUP2 MSTORE PUSH1 0x6 PUSH1 0x20 MSTORE PUSH1 0x40 DUP2 KECCAK256 SLOAD PUSH1 0x7 SWAP1 DUP2 SIGNEXTEND SWAP1 SIGNEXTEND PUSH2 0x38D JUMPI PUSH1 0x40 MLOAD PUSH3 0x461BCD PUSH1 0xE5 SHL DUP2 MSTORE PUSH1 0x4 ADD PUSH2 0x10F SWAP1 PUSH2 0x835 JUMP JUMPDEST PUSH1 0x4 SLOAD CALLER PUSH1 0x0 SWAP1 DUP2 MSTORE PUSH1 0x7 PUSH1 0x20 DUP2 SWAP1 MSTORE PUSH1 0x40 DUP3 KECCAK256 SLOAD SWAP2 SWAP3 PUSH2 0x3B9 SWAP3 PUSH1 0x1 PUSH1 0xA0 SHL SWAP1 SWAP2 DIV DUP3 SIGNEXTEND SWAP2 SIGNEXTEND PUSH2 0x935 JUMP JUMPDEST CALLER PUSH1 0x0 SWAP1 DUP2 MSTORE PUSH1 0x8 PUSH1 0x20 MSTORE PUSH1 0x40 DUP2 KECCAK256 SLOAD SWAP2 SWAP3 POP SWAP1 PUSH2 0x3DA SWAP1 PUSH1 0x7 SIGNEXTEND DUP4 PUSH2 0x980 JUMP JUMPDEST SWAP1 POP DUP1 PUSH1 0x7 SIGNEXTEND DUP5 PUSH1 0x7 SIGNEXTEND SGT ISZERO PUSH2 0x402 JUMPI PUSH1 0x40 MLOAD PUSH3 0x461BCD PUSH1 0xE5 SHL DUP2 MSTORE PUSH1 0x4 ADD PUSH2 0x10F SWAP1 PUSH2 0x86C JUMP JUMPDEST CALLER PUSH1 0x0 SWAP1 DUP2 MSTORE PUSH1 0x8 PUSH1 0x20 MSTORE PUSH1 0x40 DUP2 KECCAK256 DUP1 SLOAD DUP7 SWAP3 SWAP1 PUSH2 0x424 SWAP1 DUP5 SWAP1 PUSH1 0x7 SIGNEXTEND PUSH2 0x8E5 JUMP JUMPDEST SWAP3 POP PUSH2 0x100 EXP DUP2 SLOAD DUP2 PUSH8 0xFFFFFFFFFFFFFFFF MUL NOT AND SWAP1 DUP4 PUSH1 0x7 SIGNEXTEND PUSH8 0xFFFFFFFFFFFFFFFF AND MUL OR SWAP1 SSTORE POP PUSH1 0x0 PUSH2 0x470 PUSH1 0x3 PUSH1 0x0 SWAP1 SLOAD SWAP1 PUSH2 0x100 EXP SWAP1 DIV PUSH1 0x1 PUSH1 0x1 PUSH1 0xA0 SHL SUB AND CALLER ADDRESS DUP9 PUSH2 0x49D JUMP JUMPDEST SWAP1 POP PUSH1 0x16 DUP2 EQ PUSH2 0x492 JUMPI PUSH1 0x40 MLOAD PUSH3 0x461BCD PUSH1 0xE5 SHL DUP2 MSTORE PUSH1 0x4 ADD PUSH2 0x10F SWAP1 PUSH2 0x8BC JUMP JUMPDEST POP PUSH1 0x1 SWAP5 SWAP4 POP POP POP POP JUMP JUMPDEST PUSH1 0x0 DUP1 PUSH1 0x0 PUSH2 0x167 PUSH1 0x1 PUSH1 0x1 PUSH1 0xA0 SHL SUB AND PUSH4 0xECA36917 PUSH1 0xE0 SHL DUP9 DUP9 DUP9 DUP9 PUSH1 0x40 MLOAD PUSH1 0x24 ADD PUSH2 0x4CD SWAP5 SWAP4 SWAP3 SWAP2 SWAP1 PUSH2 0x78E JUMP JUMPDEST PUSH1 0x40 DUP1 MLOAD PUSH1 0x1F NOT DUP2 DUP5 SUB ADD DUP2 MSTORE SWAP2 DUP2 MSTORE PUSH1 0x20 DUP3 ADD DUP1 MLOAD PUSH1 0x1 PUSH1 0x1 PUSH1 0xE0 SHL SUB AND PUSH1 0x1 PUSH1 0x1 PUSH1 0xE0 SHL SUB NOT SWAP1 SWAP5 AND SWAP4 SWAP1 SWAP4 OR SWAP1 SWAP3 MSTORE SWAP1 MLOAD PUSH2 0x50B SWAP2 SWAP1 PUSH2 0x755 JUMP JUMPDEST PUSH1 0x0 PUSH1 0x40 MLOAD DUP1 DUP4 SUB DUP2 PUSH1 0x0 DUP7 GAS CALL SWAP2 POP POP RETURNDATASIZE DUP1 PUSH1 0x0 DUP2 EQ PUSH2 0x548 JUMPI PUSH1 0x40 MLOAD SWAP2 POP PUSH1 0x1F NOT PUSH1 0x3F RETURNDATASIZE ADD AND DUP3 ADD PUSH1 0x40 MSTORE RETURNDATASIZE DUP3 MSTORE RETURNDATASIZE PUSH1 0x0 PUSH1 0x20 DUP5 ADD RETURNDATACOPY PUSH2 0x54D JUMP JUMPDEST PUSH1 0x60 SWAP2 POP JUMPDEST POP SWAP2 POP SWAP2 POP DUP2 PUSH2 0x55E JUMPI PUSH1 0x15 PUSH2 0x572 JUMP JUMPDEST DUP1 DUP1 PUSH1 0x20 ADD SWAP1 MLOAD DUP2 ADD SWAP1 PUSH2 0x572 SWAP2 SWAP1 PUSH2 0x713 JUMP JUMPDEST PUSH1 0x3 SIGNEXTEND SWAP8 SWAP7 POP POP POP POP POP POP POP JUMP JUMPDEST DUP3 DUP1 SLOAD PUSH2 0x58C SWAP1 PUSH2 0x9D1 JUMP JUMPDEST SWAP1 PUSH1 0x0 MSTORE PUSH1 0x20 PUSH1 0x0 KECCAK256 SWAP1 PUSH1 0x1F ADD PUSH1 0x20 SWAP1 DIV DUP2 ADD SWAP3 DUP3 PUSH2 0x5AE JUMPI PUSH1 0x0 DUP6 SSTORE PUSH2 0x5F4 JUMP JUMPDEST DUP3 PUSH1 0x1F LT PUSH2 0x5C7 JUMPI DUP3 DUP1 ADD PUSH1 0xFF NOT DUP3 CALLDATALOAD AND OR DUP6 SSTORE PUSH2 0x5F4 JUMP JUMPDEST DUP3 DUP1 ADD PUSH1 0x1 ADD DUP6 SSTORE DUP3 ISZERO PUSH2 0x5F4 JUMPI SWAP2 DUP3 ADD JUMPDEST DUP3 DUP2 GT ISZERO PUSH2 0x5F4 JUMPI DUP3 CALLDATALOAD DUP3 SSTORE SWAP2 PUSH1 0x20 ADD SWAP2 SWAP1 PUSH1 0x1 ADD SWAP1 PUSH2 0x5D9 JUMP JUMPDEST POP PUSH2 0x600 SWAP3 SWAP2 POP PUSH2 0x604 JUMP JUMPDEST POP SWAP1 JUMP JUMPDEST JUMPDEST DUP1 DUP3 GT ISZERO PUSH2 0x600 JUMPI PUSH1 0x0 DUP2 SSTORE PUSH1 0x1 ADD PUSH2 0x605 JUMP JUMPDEST DUP1 CALLDATALOAD PUSH1 0x1 PUSH1 0x1 PUSH1 0xA0 SHL SUB DUP2 AND DUP2 EQ PUSH2 0x1FD JUMPI PUSH1 0x0 DUP1 REVERT JUMPDEST DUP1 CALLDATALOAD PUSH1 0x7 DUP2 SWAP1 SIGNEXTEND DUP2 EQ PUSH2 0x1FD JUMPI PUSH1 0x0 DUP1 REVERT JUMPDEST PUSH1 0x0 DUP1 PUSH1 0x0 DUP1 PUSH1 0x0 DUP1 PUSH1 0x0 DUP1 PUSH1 0xE0 DUP10 DUP12 SUB SLT ISZERO PUSH2 0x65D JUMPI DUP4 DUP5 REVERT JUMPDEST PUSH2 0x666 DUP10 PUSH2 0x619 JUMP JUMPDEST SWAP8 POP PUSH1 0x20 DUP10 ADD CALLDATALOAD PUSH8 0xFFFFFFFFFFFFFFFF DUP1 DUP3 GT ISZERO PUSH2 0x682 JUMPI DUP6 DUP7 REVERT JUMPDEST DUP2 DUP12 ADD SWAP2 POP DUP12 PUSH1 0x1F DUP4 ADD SLT PUSH2 0x695 JUMPI DUP6 DUP7 REVERT JUMPDEST DUP2 CALLDATALOAD DUP2 DUP2 GT ISZERO PUSH2 0x6A3 JUMPI DUP7 DUP8 REVERT JUMPDEST DUP13 PUSH1 0x20 DUP3 DUP6 ADD ADD GT ISZERO PUSH2 0x6B4 JUMPI DUP7 DUP8 REVERT JUMPDEST PUSH1 0x20 DUP4 ADD SWAP10 POP DUP1 SWAP9 POP POP POP POP PUSH2 0x6CC PUSH1 0x40 DUP11 ADD PUSH2 0x619 JUMP JUMPDEST SWAP5 POP PUSH2 0x6DA PUSH1 0x60 DUP11 ADD PUSH2 0x619 JUMP JUMPDEST SWAP4 POP PUSH2 0x6E8 PUSH1 0x80 DUP11 ADD PUSH2 0x630 JUMP JUMPDEST SWAP3 POP PUSH2 0x6F6 PUSH1 0xA0 DUP11 ADD PUSH2 0x630 JUMP JUMPDEST SWAP2 POP PUSH2 0x704 PUSH1 0xC0 DUP11 ADD PUSH2 0x630 JUMP JUMPDEST SWAP1 POP SWAP3 SWAP6 SWAP9 POP SWAP3 SWAP6 SWAP9 SWAP1 SWAP4 SWAP7 POP JUMP JUMPDEST PUSH1 0x0 PUSH1 0x20 DUP3 DUP5 SUB SLT ISZERO PUSH2 0x724 JUMPI DUP1 DUP2 REVERT JUMPDEST DUP2 MLOAD DUP1 PUSH1 0x3 SIGNEXTEND DUP2 EQ PUSH2 0x734 JUMPI DUP2 DUP3 REVERT JUMPDEST SWAP4 SWAP3 POP POP POP JUMP JUMPDEST PUSH1 0x0 PUSH1 0x20 DUP3 DUP5 SUB SLT ISZERO PUSH2 0x74C JUMPI DUP1 DUP2 REVERT JUMPDEST PUSH2 0x734 DUP3 PUSH2 0x630 JUMP JUMPDEST PUSH1 0x0 DUP3 MLOAD DUP2 JUMPDEST DUP2 DUP2 LT ISZERO PUSH2 0x775 JUMPI PUSH1 0x20 DUP2 DUP7 ADD DUP2 ADD MLOAD DUP6 DUP4 ADD MSTORE ADD PUSH2 0x75B JUMP JUMPDEST DUP2 DUP2 GT ISZERO PUSH2 0x783 JUMPI DUP3 DUP3 DUP6 ADD MSTORE JUMPDEST POP SWAP2 SWAP1 SWAP2 ADD SWAP3 SWAP2 POP POP JUMP JUMPDEST PUSH1 0x1 PUSH1 0x1 PUSH1 0xA0 SHL SUB SWAP5 DUP6 AND DUP2 MSTORE SWAP3 DUP5 AND PUSH1 0x20 DUP5 ADD MSTORE SWAP3 AND PUSH1 0x40 DUP3 ADD MSTORE PUSH1 0x7 SWAP2 SWAP1 SWAP2 SIGNEXTEND PUSH1 0x60 DUP3 ADD MSTORE PUSH1 0x80 ADD SWAP1 JUMP JUMPDEST SWAP1 ISZERO ISZERO DUP2 MSTORE PUSH1 0x20 ADD SWAP1 JUMP JUMPDEST PUSH1 0x20 DUP1 DUP3 MSTORE PUSH1 0x2C SWAP1 DUP3 ADD MSTORE PUSH32 0x62757920616D6F756E7420697320746F6F206869676820666F722073656E6465 PUSH1 0x40 DUP3 ADD MSTORE PUSH12 0x391030B63637B1B0BA34B7B7 PUSH1 0xA1 SHL PUSH1 0x60 DUP3 ADD MSTORE PUSH1 0x80 ADD SWAP1 JUMP JUMPDEST PUSH1 0x20 DUP1 DUP3 MSTORE PUSH1 0x9 SWAP1 DUP3 ADD MSTORE PUSH9 0x3337B93134B23232B7 PUSH1 0xB9 SHL PUSH1 0x40 DUP3 ADD MSTORE PUSH1 0x60 ADD SWAP1 JUMP JUMPDEST PUSH1 0x20 DUP1 DUP3 MSTORE PUSH1 0x18 SWAP1 DUP3 ADD MSTORE PUSH32 0x6E6F20616C6C6F636174696F6E20666F722073656E6465720000000000000000 PUSH1 0x40 DUP3 ADD MSTORE PUSH1 0x60 ADD SWAP1 JUMP JUMPDEST PUSH1 0x20 DUP1 DUP3 MSTORE PUSH1 0x30 SWAP1 DUP3 ADD MSTORE PUSH32 0x636C61696D656420616D6F756E7420697320746F6F206869676820666F722073 PUSH1 0x40 DUP3 ADD MSTORE PUSH16 0x32B73232B91030B63637B1B0BA34B7B7 PUSH1 0x81 SHL PUSH1 0x60 DUP3 ADD MSTORE PUSH1 0x80 ADD SWAP1 JUMP JUMPDEST PUSH1 0x20 DUP1 DUP3 MSTORE PUSH1 0xF SWAP1 DUP3 ADD MSTORE PUSH15 0x151C985B9CD9995C8811985A5B1959 PUSH1 0x8A SHL PUSH1 0x40 DUP3 ADD MSTORE PUSH1 0x60 ADD SWAP1 JUMP JUMPDEST PUSH1 0x0 DUP2 PUSH1 0x7 SIGNEXTEND DUP4 PUSH1 0x7 SIGNEXTEND DUP3 DUP3 SLT DUP3 PUSH8 0x7FFFFFFFFFFFFFFF SUB DUP3 SGT DUP2 ISZERO AND ISZERO PUSH2 0x90F JUMPI PUSH2 0x90F PUSH2 0xA0C JUMP JUMPDEST DUP3 PUSH8 0x7FFFFFFFFFFFFFFF NOT SUB DUP3 SLT DUP2 AND ISZERO PUSH2 0x92C JUMPI PUSH2 0x92C PUSH2 0xA0C JUMP JUMPDEST POP ADD SWAP4 SWAP3 POP POP POP JUMP JUMPDEST PUSH1 0x0 DUP2 PUSH1 0x7 SIGNEXTEND DUP4 PUSH1 0x7 SIGNEXTEND DUP1 PUSH2 0x958 JUMPI PUSH4 0x4E487B71 PUSH1 0xE0 SHL DUP4 MSTORE PUSH1 0x12 PUSH1 0x4 MSTORE PUSH1 0x24 DUP4 REVERT JUMPDEST PUSH8 0x7FFFFFFFFFFFFFFF NOT DUP3 EQ PUSH1 0x0 NOT DUP3 EQ AND ISZERO PUSH2 0x977 JUMPI PUSH2 0x977 PUSH2 0xA0C JUMP JUMPDEST SWAP1 SDIV SWAP4 SWAP3 POP POP POP JUMP JUMPDEST PUSH1 0x0 DUP2 PUSH1 0x7 SIGNEXTEND DUP4 PUSH1 0x7 SIGNEXTEND DUP3 DUP2 SLT DUP2 PUSH8 0x7FFFFFFFFFFFFFFF NOT ADD DUP4 SLT DUP2 ISZERO AND ISZERO PUSH2 0x9AB JUMPI PUSH2 0x9AB PUSH2 0xA0C JUMP JUMPDEST DUP2 PUSH8 0x7FFFFFFFFFFFFFFF ADD DUP4 SGT DUP2 AND ISZERO PUSH2 0x9C7 JUMPI PUSH2 0x9C7 PUSH2 0xA0C JUMP JUMPDEST POP SWAP1 SUB SWAP4 SWAP3 POP POP POP JUMP JUMPDEST PUSH1 0x2 DUP2 DIV PUSH1 0x1 DUP3 AND DUP1 PUSH2 0x9E5 JUMPI PUSH1 0x7F DUP3 AND SWAP2 POP JUMPDEST PUSH1 0x20 DUP3 LT DUP2 EQ ISZERO PUSH2 0xA06 JUMPI PUSH4 0x4E487B71 PUSH1 0xE0 SHL PUSH1 0x0 MSTORE PUSH1 0x22 PUSH1 0x4 MSTORE PUSH1 0x24 PUSH1 0x0 REVERT JUMPDEST POP SWAP2 SWAP1 POP JUMP JUMPDEST PUSH4 0x4E487B71 PUSH1 0xE0 SHL PUSH1 0x0 MSTORE PUSH1 0x11 PUSH1 0x4 MSTORE PUSH1 0x24 PUSH1 0x0 REVERT INVALID LOG2 PUSH5 0x6970667358 0x22 SLT KECCAK256 0x1F 0x5D SWAP12 0xE2 0xDE 0xB2 0xCC PUSH13 0x5228491748C9DA8625B0BF5649 0x27 PUSH11 0x7AFB51E7A8EEFC66496473 PUSH16 0x6C634300080000330000000000000000 "
		},
		"gasEstimates": {
			"creation": {
				"codeDepositCost": "529600",
				"executionCost": "21397",
				"totalCost": "550997"
			},
			"external": {
				"buy(int64)": "infinite",
				"claim(int64)": "infinite",
				"fund(int64)": "infinite",
				"initialize(address,string,address,address,int64,int64,int64)": "infinite",
				"register(int64)": "21349",
				"withdraw(int64)": "infinite"
			}
		},
		"methodIdentifiers": {
			"buy(int64)": "08bf598d",
			"claim(int64)": "e5dd1a36",
			"fund(int64)": "d78a42ac",
			"initialize(address,string,address,address,int64,int64,int64)": "7e5dbf49",
			"register(int64)": "d0fc4a2b",
			"withdraw(int64)": "4728432e"
		}
	},
	"abi": [
		{
			"inputs": [],
			"stateMutability": "nonpayable",
			"type": "constructor"
		},
		{
			"inputs": [
				{
					"internalType": "int64",
					"name": "amount",
					"type": "int64"
				}
			],
			"name": "buy",
			"outputs": [
				{
					"internalType": "bool",
					"name": "",
					"type": "bool"
				}
			],
			"stateMutability": "nonpayable",
			"type": "function"
		},
		{
			"inputs": [
				{
					"internalType": "int64",
					"name": "amount",
					"type": "int64"
				}
			],
			"name": "claim",
			"outputs": [
				{
					"internalType": "bool",
					"name": "",
					"type": "bool"
				}
			],
			"stateMutability": "nonpayable",
			"type": "function"
		},
		{
			"inputs": [
				{
					"internalType": "int64",
					"name": "amount",
					"type": "int64"
				}
			],
			"name": "fund",
			"outputs": [
				{
					"internalType": "bool",
					"name": "",
					"type": "bool"
				}
			],
			"stateMutability": "nonpayable",
			"type": "function"
		},
		{
			"inputs": [
				{
					"internalType": "address",
					"name": "_owner",
					"type": "address"
				},
				{
					"internalType": "string",
					"name": "_name",
					"type": "string"
				},
				{
					"internalType": "address",
					"name": "_poolToken",
					"type": "address"
				},
				{
					"internalType": "address",
					"name": "_quoteToken",
					"type": "address"
				},
				{
					"internalType": "int64",
					"name": "_price",
					"type": "int64"
				},
				{
					"internalType": "int64",
					"name": "_initialSupply",
					"type": "int64"
				},
				{
					"internalType": "int64",
					"name": "_totalSupply",
					"type": "int64"
				}
			],
			"name": "initialize",
			"outputs": [
				{
					"internalType": "bool",
					"name": "success",
					"type": "bool"
				}
			],
			"stateMutability": "nonpayable",
			"type": "function"
		},
		{
			"inputs": [
				{
					"internalType": "int64",
					"name": "allocation",
					"type": "int64"
				}
			],
			"name": "register",
			"outputs": [
				{
					"internalType": "bool",
					"name": "",
					"type": "bool"
				}
			],
			"stateMutability": "nonpayable",
			"type": "function"
		},
		{
			"inputs": [
				{
					"internalType": "int64",
					"name": "amount",
					"type": "int64"
				}
			],
			"name": "withdraw",
			"outputs": [
				{
					"internalType": "bool",
					"name": "",
					"type": "bool"
				}
			],
			"stateMutability": "nonpayable",
			"type": "function"
		}
	]
}